:020000040800F2
:1000000000000220F92000080D1F0008151F00083D
:100010001D1F0008251F00082D1F000800000000FC
:10002000000000000000000000000000351F000874
:10003000431F000800000000511F00085F1F000858
:1000400049210008492100084921000849210008E8
:1000500049210008492100084921000849210008D8
:1000600049210008492100084921000849210008C8
:1000700049210008492100084921000849210008B8
:1000800049210008492100084921000849210008A8
:100090004921000849210008492100084921000898
:1000A0004921000849210008492100084921000888
:1000B0004921000849210008492100084921000878
:1000C0004921000849210008492100084921000868
:1000D0004921000849210008492100084921000858
:1000E0004921000849210008492100084921000848
:1000F0004921000849210008492100084921000838
:100100004921000849210008492100084921000827
:100110004921000849210008492100084921000817
:100120004921000849210008492100084921000807
:1001300049210008492100084921000849210008F7
:100140004921000849210008492100086D1F0008C5
:1001500049210008492100084921000849210008D7
:1001600049210008492100084921000849210008C7
:100170004921000849210008492100080000000029
:08018000492100084921000893
:1001900010B5054C237833B9044B13B10448AFF3C1
:1001A00000800123237010BDF80100200000000032
:1001B00000EB000808B5034B1BB103490348AFF33C
:1001C000008008BD00000000FC01002000EB0008DA
:1001D00001F0FF01102A2BDB10F0070F08D010F8F8
:1001E000013B013A8B422DD010F0070F42B3F6D1FC
:1001F000F0B441EA012141EA014122F007047FF015
:1002000000070023F0E80256083C85EA010586EA6B
:10021000010685FA47F5A3FA87F586FA47F6A5FAA7
:1002200087F68EB9EED1F0BC01F0FF0102F00702B3
:1002300032B110F8013B013A83EA010313B1F8D15E
:100240000020704701387047002D06BF354603383F
:10025000073815F0010F07D1013015F4807F02BF78
:10026000013015F4C03F0130F0BC0138704700BFC9
:10027000034613F8012B002AFBD1181A01387047E6
:1002800081F0004102E000BF83F0004330B54FEA47
:1002900041044FEA430594EA050F08BF90EA020FB4
:1002A0001FBF54EA000C55EA020C7FEA645C7FEA47
:1002B000655C00F0E2804FEA5454D4EB5555B8BF6A
:1002C0006D420CDD2C4480EA020281EA030382EADB
:1002D000000083EA010180EA020281EA0303362D6D
:1002E00088BF30BD11F0004F4FEA01314FF4801C40
:1002F0004CEA113102D0404261EB410113F0004F52
:100300004FEA03334CEA133302D0524263EB430308
:1003100094EA050F00F0A780A4F10104D5F1200EA6
:100320000DDB02FA0EFC22FA05F2801841F1000101
:1003300003FA0EF2801843FA05F359410EE0A5F1D5
:1003400020050EF1200E012A03FA0EFC28BF4CF006
:10035000020C43FA05F3C01851EBE37101F00045BC
:1003600007D54FF0000EDCF1000C7EEB00006EEBC9
:100370000101B1F5801F1BD3B1F5001F0CD3490853
:100380005FEA30004FEA3C0C04F101044FEA4452AA
:1003900012F5800F80F09A80BCF1004F08BF5FEA31
:1003A000500C50F1000041EB045141EA050130BD11
:1003B0005FEA4C0C404141EB0101013C28BFB1F523
:1003C000801FE9D291F0000F04BF01460020B1FA6E
:1003D00081F308BF2033A3F10B03B3F120020CDA41
:1003E0000C3208DD02F1140CC2F10C0201FA0CF01F
:1003F00021FA02F10CE002F11402D8BFC2F1200C84
:1004000001FA02F120FA0CFCDCBF41EA0C01904039
:10041000E41AA2BF01EB0451294330BD6FEA040482
:100420001F3C1CDA0C340EDC04F11404C4F120026D
:1004300020FA04F001FA02F340EA030021FA04F37F
:1004400045EA030130BDC4F10C04C4F1200220FAD6
:1004500002F001FA04F340EA0300294630BD21FA14
:1004600004F0294630BD94F0000F83F4801306BFDA
:1004700081F480110134013D4EE77FEA645C18BFCE
:100480007FEA655C29D094EA050F08BF90EA020F65
:1004900005D054EA000C04BF1946104630BD91EA5D
:1004A000030F1EBF0021002030BD5FEA545C05D160
:1004B0004000494128BF41F0004130BD14F580049F
:1004C0003CBF01F5801130BD01F0004545F0FE4113
:1004D00041F470014FF0000030BD7FEA645C1ABF48
:1004E000194610467FEA655C1CBF0B46024650EA7F
:1004F000013406BF52EA033591EA030F41F40021AB
:1005000030BD00BF90F0000F04BF0021704730B530
:100510004FF4806404F132044FF000054FF0000105
:1005200050E700BF90F0000F04BF0021704730B5C6
:100530004FF4806404F1320410F0004548BF40429B
:100540004FF000013EE700BF42004FEAE2014FEAF0
:1005500031014FEA02701FBF12F07F4393F07F4FCB
:1005600081F06051704732F07F4208BF704793F0CE
:100570007F4F04BF41F40021704730B54FF46074E1
:1005800001F0004521F000411CE700BF50EA0102E4
:1005900008BF704730B54FF000050AE050EA01028D
:1005A00008BF704730B511F0004502D5404261EBFD
:1005B00041014FF4806404F132045FEA915C3FF43E
:1005C000D8AE4FF003025FEADC0C18BF03325FEADB
:1005D000DC0C18BF033202EBDC02C2F1200300FA8C
:1005E00003FC20FA02F001FA03FE40EA0E0021FAB1
:1005F00002F11444BDE600BF70B54FF0FF0C4CF49F
:10060000E06C1CEA11541DBF1CEA135594EA0C0F50
:1006100095EA0C0F00F0DEF82C4481EA030621EA8B
:100620004C5123EA4C5350EA013518BF52EA0335C6
:1006300041F4801143F4801338D0A0FB02CE4FF078
:100640000005E1FB02E506F00042E0FB03E54FF0A8
:100650000006E1FB03569CF0000F18BF4EF0010EA0
:10066000A4F1FF04B6F5007F64F5407404D25FEA9C
:100670004E0E6D4146EB060642EAC62141EA55514F
:100680004FEAC52040EA5E504FEACE2EB4F1FD0C91
:1006900088BFBCF5E06F1ED8BEF1004F08BF5FEA0F
:1006A000500E50F1000041EB045170BD06F00046C1
:1006B00046EA010140EA020081EA0301B4EB5C046E
:1006C000C2BFD4EB0C0541EA045170BD41F4801166
:1006D0004FF0000E013C00F3AB8014F1360FDEBF8B
:1006E000002001F0004170BDC4F10004203C35DA67
:1006F0000C341BDC04F11404C4F1200500FA05F3EA
:1007000020FA04F001FA05F240EA020001F000428A
:1007100021F0004110EBD37021FA04F642EB060100
:100720005EEA430E08BF20EAD37070BDC4F10C042A
:10073000C4F1200500FA04F320FA05F001FA04F2EE
:1007400040EA020001F0004110EBD37041F10001DA
:100750005EEA430E08BF20EAD37070BDC4F12005E5
:1007600000FA05F24EEA020E20FA04F301FA05F24D
:1007700043EA020321FA04F001F0004121FA04F2F5
:1007800020EA020000EBD3705EEA430E08BF20EAC5
:10079000D37070BD94F0000F0FD101F000464000FF
:1007A00041EB010111F4801F08BF013CF7D041EA81
:1007B000060195F0000F18BF704703F00046520085
:1007C00043EB030313F4801F08BF013DF7D043EA56
:1007D0000603704794EA0C0F0CEA135518BF95EA0C
:1007E0000C0F0CD050EA410618BF52EA4306D1D193
:1007F00081EA030101F000414FF0000070BD50EAB2
:10080000410606BF1046194652EA430619D094EA3B
:100810000C0F02D150EA013613D195EA0C0F05D125
:1008200052EA03361CBF104619460AD181EA030179
:1008300001F0004141F0FE4141F470014FF0000031
:1008400070BD41F0FE4141F4780170BD70B54FF0CC
:10085000FF0C4CF4E06C1CEA11541DBF1CEA13554C
:1008600094EA0C0F95EA0C0F00F0A7F8A4EB05042E
:1008700081EA030E52EA03354FEA013100F0888025
:100880004FEA03334FF0805545EA131343EA1263EE
:100890004FEA022245EA111545EA10654FEA0026A3
:1008A0000EF000419D4208BF964244F1FD0404F55C
:1008B000407402D25B084FEA3202B61A65EB0305B8
:1008C0005B084FEA32024FF480104FF4002CB6EB75
:1008D000020E75EB030E22BFB61A754640EA0C00F5
:1008E0005B084FEA3202B6EB020E75EB030E22BF35
:1008F000B61A754640EA5C005B084FEA3202B6EB76
:10090000020E75EB030E22BFB61A754640EA9C0034
:100910005B084FEA3202B6EB020E75EB030E22BF04
:10092000B61A754640EADC0055EA060E18D04FEAC2
:10093000051545EA16754FEA06164FEAC30343EA62
:1009400052734FEAC2025FEA1C1CC0D111F4801F2F
:100950000BD141EA00014FF000004FF0004CB6E728
:1009600011F4801F04BF01430020B4F1FD0C88BFC7
:10097000BCF5E06F3FF6AFAEB5EB030C04BFB6EBD2
:10098000020C5FEA500C50F1000041EB045170BDC5
:100990000EF0004E4EEA113114EB5C04C2BFD4EBF2
:1009A0000C0541EA045170BD41F480114FF0000E76
:1009B000013C90E645EA060E8DE60CEA135594EAF2
:1009C0000C0F08BF95EA0C0F3FF43BAF94EA0C0FF5
:1009D0000AD150EA01347FF434AF95EA0C0F7FF46A
:1009E00025AF104619462CE795EA0C0F06D152EABE
:1009F00003353FF4FDAE1046194622E750EA4106A2
:100A000018BF52EA43067FF4C5AE50EA41047FF4B2
:100A10000DAF52EA43057FF4EBAE12E74FF0FF3C17
:100A200006E000BF4FF0010C02E000BF4FF0010CE8
:100A30004DF804CD4FEA410C7FEA6C5C4FEA430C61
:100A400018BF7FEA6C5C1BD001B050EA410C0CBFB0
:100A500052EA430C91EA030F02BF90EA020F002012
:100A6000704710F1000F91EA030F58BF994208BF79
:100A700090422CBFD8176FEAE37040F00100704736
:100A80004FEA410C7FEA6C5C02D150EA013C07D18D
:100A90004FEA430C7FEA6C5CD6D152EA033CD3D0D8
:100AA0005DF8040B704700BF8446104662468C46D2
:100AB0001946634600E000BF01B5FFF7B7FF002805
:100AC00048BF10F1000F01BD4DF808EDFFF7F4FF2E
:100AD0000CBF012000205DF808FB00BF4DF808EDB9
:100AE000FFF7EAFF34BF012000205DF808FB00BFDC
:100AF0004DF808EDFFF7E0FF94BF012000205DF8FE
:100B000008FB00BF4DF808EDFFF7CEFF94BF0120B2
:100B100000205DF808FB00BF4DF808EDFFF7C4FFAB
:100B200034BF012000205DF808FB00BF4FEA410CF4
:100B30007FEA6C5C02D150EA013C0AD14FEA430CD7
:100B40007FEA6C5C02D152EA033C02D14FF0000014
:100B500070474FF0010070474FEA410212F5001252
:100B600015D211D56FF47873B3EB625212D94FEAF4
:100B7000C12343F0004343EA505311F0004F23FADE
:100B800002F018BF404270474FF00000704750EA33
:100B9000013005D111F0004008BF6FF000407047F0
:100BA0004FF00000704700BF53B94AB9002908BF91
:100BB00000281CBF4FF0FF314FF0FF3000F088B924
:100BC000ADF1080C6DE904CE00F006F8DDF804E0A4
:100BD000DDE9022304B070472DE9F047089D8E46F9
:100BE00004468846002B4AD18A42174662D9B2FA97
:100BF00082F64EB1C6F1200301FA06F820FA03F39B
:100C0000B74043EA0808B4404FEA174E1FFA87FC82
:100C1000B8FBFEF1230C0EFB118843EA084301FBED
:100C20000CF29A4209D9FB1801F1FF3080F0EA80FA
:100C30009A4240F2E78002393B449A1AA3B2B2FBCF
:100C4000FEF00EFB102243EA024300FB0CFC9C4525
:100C500009D9FB1800F1FF3280F0D6809C4540F2A4
:100C6000D3803B44023840EA0140A3EB0C0300214F
:100C70001DB1F3400022C5E90032BDE8F0878B4288
:100C800005D90DB1C5E9000100210846F5E7B3FA21
:100C900083F1002946D1734502D3824200F20581D7
:100CA000841A6EEB030201209046002DE5D0C5E9C1
:100CB0000048E2E7002A00F09080B2FA82F6002EA7
:100CC00040F0A4808A1A030C4FEA174E80B2BCB2DF
:100CD0000121B2FBFEFC0EFB1C2243EA024304FB93
:100CE0000CF29A4207D9FB180CF1FF3802D29A4253
:100CF00000F2E080C4469B1AB3FBFEF20EFB1233F7
:100D000040EA034302FB04F49C4207D9FB1802F1BA
:100D1000FF3002D29C4200F2CA8002461B1B42EA0C
:100D20000C40A5E7C1F120068B4022FA06F71F43CD
:100D30000EFA01F420FA06F32EFA06FE4FEA1749DE
:100D4000234300FA01F81FFA87FCBEFBF9F01C0CE4
:100D500009FB10EE44EA0E4400FB0CFEA64502FA25
:100D600001F209D93C1900F1FF3A80F09C80A645B8
:100D700040F2998002383C44A4EB0E041FFA83FE33
:100D8000B4FBF9F309FB13444EEA044403FB0CFCE7
:100D9000A44508D93C1903F1FF3E80F08280A445A8
:100DA0007FD9023B3C4443EA0040A4EB0C04A0FB87
:100DB00002EC64457346E14662D35FD05DB1B8EBA7
:100DC000030264EB090404FA06F622FA01F31E4357
:100DD000CC40C5E9006400214FE7B1FBF2FC010CF7
:100DE00041EA0E4180B240EA01423B4638463C4669
:100DF000B846BE462026B1FBF7F1A2EB080241EA55
:100E00000C4166E7014618E710462CE7C6F12002C0
:100E10002EFA02F3B740B14020FA02F24FEA174E21
:100E20000A43B3FBFEF8BCB20EFB1833110C41EAC7
:100E3000034108FB04F9B04089454FEA104380B2F2
:100E40003ED9791808F1FF3C01D289451FD8A1EBA2
:100E50000901B1FBFEF909FB04F80EFB191192B26E
:100E600042EA0142424529D2BA1809F1FF31C4D2FF
:100E70004245C2D2A9F102013A44BEE7F0459DD2F3
:100E8000BEEB02036CEB070C0138E14696E7A7EBDB
:100E900009094944A8F1020CB1FBFEF909FB04F869
:100EA000DBE773467FE7504666E70846FDE63B44CE
:100EB000023A33E7ACF1020C3B441CE749469CE79D
:100EC000A1EB0901C446B1FBFEF909FB04F8C4E734
:100ED000704700BF80B586B002AF03460A46FB717B
:100EE0001346BB7197F9073023F00F035AB297F9F5
:100EF000063013435BB243F008035BB2DBB2FB7313
:100F000007F10F024FF0FF33009301234E211248E7
:100F100004F00AFBFB7B43F00403DBB2FB7307F135
:100F20000F024FF0FF33009301234E210A4804F0D3
:100F3000FBFAFB7B23F00403DBB2FB7307F10F0228
:100F40004FF0FF33009301234E21034804F0ECFAE5
:100F500000BF1037BD4680BD5C02002080B582B066
:100F600000AF0346FB71FB7923F00F03DBB20021D6
:100F70001846FFF7AFFFFB791B01DBB200211846D3
:100F8000FFF7A8FF022001F053F900BF0837BD4664
:100F900080BD80B582B000AF0346FB71FB7923F0C2
:100FA0000F03DBB201211846FFF794FFFB791B0109
:100FB000DBB201211846FFF78DFF022001F038F95E
:100FC00000BF0837BD4680BD80B500AF0120FFF7E8
:100FD000C5FF022001F02CF900BF80BD80B584B0B0
:100FE00000AF786039607B68002B04D13B68DBB2CE
:100FF000803BDBB203E03B68DBB2403BDBB2FB7320
:10100000FB7B1846FFF7AAFF00BF1037BD4680BD27
:1010100080B582B000AF786006E07B685A1C7A60C9
:101020001B781846FFF7B5FF7B681B78002BF4D1BF
:1010300000BF00BF0837BD4680BD80B500AF32207D
:1010400001F0F6F800213020FFF744FF052001F001
:10105000EFF800213020FFF73DFF012001F0E8F814
:1010600000213020FFF736FF0A2001F0E1F80021CF
:101070002020FFF72FFF2820FFF770FF0820FFF741
:101080006DFF0120FFF76AFF0620FFF767FF0C20C6
:10109000FFF764FF00BF80BD80B483B000AF78600D
:1010A0004FF06043D3F8803E03F00103002B13D0D0
:1010B0004FF06043D3F8003E03F00103002B0BD048
:1010C00000E000BF4FF060431B68002BF9D04FF0E9
:1010D00060437A68D2B21A707B6818460C37BD46F6
:1010E0005DF8047B704780B586B000AFF860B960EA
:1010F0007A6000237B6109E0BB685A1CBA601B78E8
:101100001846FFF7C9FF7B6901337B617A697B6809
:101110009A42F1DB7B6818461837BD4680BD000057
:1011200080B588B000AF0023FB610023BB6113E0F2
:10113000224801F0E5F86421204801F0E6F91F4853
:1011400001F06EFA0246FB691344FB611B4801F093
:10115000A9F9BB690133BB61BB69092BE8DDFB69F8
:1011600007EE903AB8EE677AF2EE046AC7EE267A96
:10117000C7ED057AD7ED057A9FED117A27EE877ACC
:10118000DFED106AC7EE267AC7ED047A0E4BFB60DE
:101190000E4BBB6097ED047AD7ED037A77EE676A62
:1011A00097ED027AC6EE877AC7ED017A7B6807EE83
:1011B000903AB0EE670A2037BD4680BD1402002089
:1011C0003333534000F07F453333D33FD044D83CD2
:1011D00080B588B002AF00F0B9FF00F089F800F0E8
:1011E0006FFA00F041F900F09BF90AF0BBFA00F049
:1011F000E9F800F03BFA00F065F900F0C1F900F001
:1012000085FBFFF71AFF00212E4806F009F82E484B
:101210000BF0F0FB2D480BF0EDFB2D480BF0EAFB3B
:101220002C480BF0E7FB00F0A5FB2B4B1A68254B75
:101230001B685A63FFF774FF87ED050A7869FFF7AB
:1012400083F902460B4624490968009123480BF0B4
:1012500069FBFFF7B9FE00210020FFF7BFFE204821
:10126000FFF7D6FE04210020FFF7B8FE7869FFF7EC
:101270006BF902460B46381D1A490BF0C3FB3B1DA8
:101280001846FFF7C5FE00210120FFF7A7FE16480C
:10129000FFF7BEFE04210120FFF7A0FE0E4B1A68E7
:1012A0003B1D124918460BF0ADFB3B1D1846FFF7DE
:1012B000AFFE4FF4FA7000F0BBFF0AF079FA00BFFE
:1012C000B1E700BF4C03002018EB000848EB000812
:1012D00068EB00089CEB0008DC030020B8EB00087A
:1012E000D8EB0008E0EB0008E8EB0008F0EB0008A2
:1012F00080B594B000AF07F12003302200211846DA
:101300000BF07AFC07F10C0300221A605A609A6015
:10131000DA601A610023BB60284B1B6C274A43F03C
:1013200080531364254B1B6C03F08053BB60BB6878
:1013300000237B60224B1B68214A43F480431360E7
:101340001F4B1B6803F480437B607B6801233B6277
:101350004FF480337B620223BB634FF48003FB6353
:1013600008233B644FF4A8737B640223BB64072308
:10137000FB6407F12003184605F0D0F80346002B64
:1013800001D000F0BBFA0F23FB6002233B61002376
:101390007B614FF4A053BB614FF48053FB6107F1B5
:1013A0000C030521184605F031FB0346002B01D044
:1013B00000F0A4FA00BF5037BD4680BD003802409F
:1013C0000070004080B584B000AF3B4600221A6038
:1013D0005A609A60DA60214B214A1A601F4B4FF421
:1013E00080325A601D4B00229A601C4B00221A6109
:1013F0001A4B00221A76194B002283F82020174B33
:101400000022DA62154B174A9A62144B0022DA6006
:10141000124B0122DA61114B002283F830200F4B6E
:1014200001225A610D4800F027FF0346002B01D02E
:1014300000F064FA00233B6001237B600023BB6063
:101440003B461946054801F0F9F80346002B01D048
:1014500000F054FA00BF1037BD4680BD14020020D2
:10146000002001400100000F80B500AF124B134A6D
:101470001A60114B124A5A600F4B00229A600E4BB1
:101480000022DA600C4B4FF480421A610A4B0022B2
:101490005A61094B00229A61074B0022DA61064B20
:1014A00000221A62044803F0FBFE0346002B01D021
:1014B00000F024FA00BF80BD5C0200200054004010
:1014C000A086010080B500AF124B134A1A60114B81
:1014D000124A5A600F4B00229A600E4B0022DA60CB
:1014E0000C4B4FF480421A610A4B00225A61094B9F
:1014F00000229A61074B0022DA61064B00221A6231
:10150000044803F0CDFE0346002B01D000F0F6F9AD
:1015100000BF80BDB0020020005C0040A08601003A
:1015200080B500AF134B144A1A60124B4FF400728F
:101530005A60104B00229A600E4B0022DA600D4B6D
:101540004FF400721A610B4B0C4A5A61094B00228E
:101550009A61084B0022DA61064B00221A620548A4
:1015600004F03CFB0346002B01D000F0C7F900BF9C
:1015700080BD00BF04030020003C00400077010054
:1015800080B58EB000AF07F1280300221A605A60C0
:101590009A60DA6007F1200300221A605A603B1D4E
:1015A00000221A605A609A60DA601A615A619A6180
:1015B0002C4B2D4A1A602B4B53225A60294B002288
:1015C0009A60284B6422DA60264B00221A61254B70
:1015D00000229A61234805F07BFD0346002B01D0D1
:1015E00000F08CF94FF48053BB6207F128031946D1
:1015F0001C4805F09FFF0346002B01D000F07EF948
:10160000184805F0B4FD0346002B01D000F076F930
:1016100000233B6200237B6207F120031946114837
:1016200006F066FB0346002B01D000F067F960234B
:101630007B600023BB600023FB6000237B613B1DBC
:1016400000221946074805F0B3FE0346002B01D0DF
:1016500000F054F9034800F0D7FB00BF3837BD460F
:1016600080BD00BF4C0300200004004080B500AFE7
:10167000114B124A1A60104B4FF4E1325A600E4B74
:1016800000229A600C4B0022DA600B4B00221A6198
:10169000094B0C225A61084B00229A61064B00222A
:1016A000DA61054806F0A0FB0346002B01D000F0EC
:1016B00025F900BF80BD00BF940300200044004016
:1016C00080B58CB000AF07F11C0300221A605A608D
:1016D0009A60DA601A610023BB61824B1B6B814AFE
:1016E00043F0100313637F4B1B6B03F01003BB61CC
:1016F000BB6900237B617B4B1B6B7A4A43F004037D
:101700001363784B1B6B03F004037B617B6900233D
:101710003B61744B1B6B734A43F080031363714B43
:101720001B6B03F080033B613B690023FB606D4B47
:101730001B6B6C4A43F0010313636A4B1B6B03F092
:101740000103FB60FB680023BB60664B1B6B654AB3
:1017500043F002031363634B1B6B03F00203BB6094
:10176000BB6800237B605F4B1B6B5E4A43F0080342
:1017700013635C4B1B6B03F008037B607B680022E8
:101780000821594801F03EFC01220121574801F08F
:1017900039FC00224FF21001554801F033FC0823B8
:1017A000FB6101233B6200237B620023BB6207F1E4
:1017B0001C0319464C4801F071FA0123FB61012317
:1017C0003B6200237B620023BB6207F11C031946C6
:1017D000464801F063FA0823FB6102233B620023C1
:1017E0007B620023BB620523FB6207F11C031946E1
:1017F0003E4801F053FAA023FB6102233B62002321
:101800007B620023BB620523FB6207F11C031946C0
:10181000384801F043FA0423FB6100233B620023B4
:101820007B6207F11C031946334801F037FA4FF485
:101830008063FB6102233B6200237B620023BB6267
:101840000523FB6207F11C0319462B4801F026FA19
:101850004FF21003FB6101233B6200237B620023F4
:10186000BB6207F11C031946214801F017FA202337
:10187000FB6100233B6200237B6207F11C031946D6
:101880001B4801F00BFA0223FB614FF490133B62FB
:1018900000237B6207F11C031946134801F0FEF98F
:1018A0003023FB6100233B6201237B620023BB6288
:1018B00007F11C0319460C4801F0F0F94023FB61C5
:1018C00002233B6200237B620023BB620223FB6294
:1018D00007F11C031946074801F0E0F900BF303753
:1018E000BD4680BD003802400010024000080240A2
:1018F000000C0240000002400004024080B400AF2F
:1019000000BFBD465DF8047B7047000080B586B01F
:1019100000AF3B1D00221A605A609A60DA601A61BB
:1019200030237B600023BB600123FB6000233B610D
:101930003B1D19460C4801F0B1F94FF470437B6030
:101940000123BB600023FB6000233B613B1D194664
:10195000064801F0A3F900F015F805480BF04AF825
:1019600000BF1837BD4680BD00100240000C024089
:10197000F8EB000880B500AF00F040F800F002F886
:1019800000BF80BD80B500AF1A4B1B68182BCCBFC1
:1019900001230023DBB21A464FF48051164801F0B0
:1019A00031FB144B1B68312BCCBF01230023DBB26E
:1019B0001A464FF40051104801F024FB0D4B1B68F0
:1019C0004A2BCCBF01230023DBB21A464FF48041DF
:1019D000094801F017FB074B1B68632BCCBF0123A1
:1019E0000023DBB21A464FF40041034801F00AFB22
:1019F00000BF80BDDC030020000C024080B582B037
:101A000000AF1021234801F0E5FA0346FB712021C5
:101A1000204801F0DFFA0346BB71FB79002B15D19A
:101A20001D4B1B78012B11D11C4B1B6819331B4A12
:101A300013601A4B1B68642B02DD184B64221A607A
:101A4000164B1B68194616480AF06CFFBB79002B31
:101A500015D1144B1B78012B11D1104B1B68193B6E
:101A60000E4A13600D4B1B68002B02DA0B4B002251
:101A70001A600A4B1B6819460B480AF053FF064AC6
:101A8000FB791370074ABB79137000BF0837BD4656
:101A900080BD00BF0010024000000020DC030020D9
:101AA00014EC00080100002030EC000880B582B082
:101AB00000AF00237B60104B5B6C0F4A43F4804304
:101AC00053640D4B5B6C03F480437B607B680023A5
:101AD0003B60094B1B6C084A43F080531364064B70
:101AE0001B6C03F080533B603B68072001F094F8C7
:101AF00000BF0837BD4680BD0038024080B58AB0BF
:101B000000AF786007F1140300221A605A609A60EF
:101B1000DA601A617B681B68174A934227D1002359
:101B20003B61164B5B6C154A43F480735364134B53
:101B30005B6C03F480733B613B690023FB600F4BDC
:101B40001B6B0E4A43F0010313630C4B1B6B03F03A
:101B50000103FB60FB6801237B610323BB6100235E
:101B6000FB6107F114031946054801F097F800BF1F
:101B70002837BD4680BD00BF00200140003802402C
:101B80000000024080B58CB000AF786007F11C0304
:101B900000221A605A609A60DA601A617B681B68DA
:101BA000424A93422DD10023BB61414B1B6B404AFB
:101BB00043F0020313633E4B1B6B03F00203BB6154
:101BC000BB694FF41073FB6112233B6201237B62FC
:101BD0000023BB620423FB6207F11C03194635484E
:101BE00001F05CF800237B61314B1B6C304A43F4FD
:101BF000001313642E4B1B6C03F400137B617B6991
:101C000050E07B681B682C4A93424BD100233B6118
:101C1000274B1B6B264A43F004031363244B1B6BB7
:101C200003F004033B613B690023FB60204B1B6B0B
:101C30001F4A43F0010313631D4B1B6B03F00103A9
:101C4000FB60FB684FF40073FB6112233B620023CF
:101C50007B620323BB620423FB6207F11C0319466A
:101C6000164801F01BF84FF48073FB6112233B62AE
:101C700000237B620323BB620423FB6207F11C0386
:101C800019460F4801F00AF80023BB60084B1B6C93
:101C9000074A43F400031364054B1B6C03F4000371
:101CA000BB60BB6800BF3037BD4680BD00540040FC
:101CB0000038024000040240005C0040000802407E
:101CC0000000024080B58EB000AF786007F12403B9
:101CD00000221A605A609A60DA601A6107F11403F0
:101CE00000221A605A609A60DA607B681B68314A89
:101CF00093425AD101237B61C023BB610223FB6164
:101D000007F11403184605F0A1F80346002B01D093
:101D1000FFF7F4FD00233B61274B1B6C264A43F47D
:101D200000431364244B1B6C03F400433B613B6989
:101D30000023FB60204B1B6B1F4A43F0010313631E
:101D40001D4B1B6B03F00103FB60FB680023BB60B2
:101D5000194B1B6B184A43F004031363164B1B6BA0
:101D600003F00403BB60BB6810237B620223BB62E9
:101D70000023FB6200233B6306237B6307F12403FC
:101D800019460E4800F08AFF4FF4A4537B620223E9
:101D9000BB620023FB6200233B6306237B6307F1E6
:101DA00024031946064800F079FF00BF3837BD46C6
:101DB00080BD00BF003C00400038024000000240EF
:101DC0000008024080B485B000AF78607B681B6873
:101DD0000B4A93420DD10023FB600A4B1B6C094A4E
:101DE00043F002031364074B1B6C03F00203FB6018
:101DF000FB6800BF1437BD465DF8047B704700BF29
:101E0000000400400038024080B588B000AF786020
:101E100007F10C0300221A605A609A60DA601A61B6
:101E20007B681B68124A93421DD10023BB60114B93
:101E30001B6B104A43F0010313630E4B1B6B03F043
:101E40000103BB60BB684023FB6002233B610023AE
:101E50007B610023BB610223FB6107F10C03194680
:101E6000054800F01BFF00BF2037BD4680BD00BF06
:101E700000040040003802400000024080B58AB0F3
:101E800000AF786007F1140300221A605A609A606C
:101E9000DA601A617B681B68194A93422BD10023D0
:101EA0003B61184B1B6C174A43F400331364154B0A
:101EB0001B6C03F400333B613B690023FB60114B57
:101EC0001B6B104A43F0010313630E4B1B6B03F0B3
:101ED0000103FB60FB680C237B610223BB610023D1
:101EE000FB6103233B6207237B6207F1140319465E
:101EF000054800F0D3FE00BF2837BD4680BD00BFB7
:101F000000440040003802400000024080B400AFAE
:101F100000BFFDE780B400AF00BFFDE780B400AFB5
:101F200000BFFDE780B400AF00BFFDE780B400AFA5
:101F300000BFFDE780B400AF00BFBD465DF8047B85
:101F4000704780B400AF00BFBD465DF8047B7047AA
:101F500080B400AF00BFBD465DF8047B704780B51C
:101F600000AF00F045F900BF80BD000080B500AFB4
:101F7000024801F041FB00BF80BD00BFC407002044
:101F800080B400AF01231846BD465DF8047B70475E
:101F900080B582B000AF786039600AF08FFE0346EA
:101FA00016221A604FF0FF3318460837BD4680BD31
:101FB00080B582B000AF78604FF0FF317868FFF7EE
:101FC000E7FF00BFFDE780B586B000AFF860B960FD
:101FD0007A6000237B610AE0AFF300800146BB68B2
:101FE0005A1CBA60CAB21A707B6901337B617A6984
:101FF0007B689A42F0DB7B6818461837BD4680BD87
:1020000080B483B000AF78604FF0FF3318460C37D0
:10201000BD465DF8047B704780B483B000AF786044
:1020200039603B684FF400525A60002318460C3761
:10203000BD465DF8047B704780B483B000AF786024
:10204000012318460C37BD465DF8047B704780B409
:1020500085B000AFF860B9607A6000231846143785
:10206000BD465DF8047B704780B586B000AF7860F0
:10207000144A154BD31A7B617B693B61134B1B6878
:10208000002B02D1114B124A1A60104B1A687B6860
:1020900013443A699A4207D20AF010FE03460C2212
:1020A0001A604FF0FF3309E0084B1B68FB60074BD9
:1020B0001A687B681344054A1360FB681846183792
:1020C000BD4680BD0000022000040000E0030020A7
:1020D000F00C002080B400AF064BD3F88830054ADE
:1020E00043F47003C2F8883000BFBD465DF8047B3E
:1020F000704700BF00ED00E0DFF834D0FFF7EAFFE3
:102100000C480D490D4A002302E0D458C450043352
:10211000C4188C42F9D30A4A0A4C002301E0136028
:102120000432A242FBD30AF0CFFDFFF751F870470B
:102130000000022000000020F8010020ECEF000861
:10214000F8010020F00C0020FEE7000080B500AF91
:102150000E4B1B680D4A43F4007313600B4B1B6856
:102160000A4A43F480631360084B1B68074A43F430
:1021700080731360032000F04FFD002000F008F88A
:10218000FFF794FC0023184680BD00BF003C0240CE
:1021900080B582B000AF7860124B1A68124B1B7882
:1021A00019464FF47A73B3FBF1F3B2FBF3F318461D
:1021B00000F067FD0346002B01D001230EE07B6891
:1021C0000F2B0AD8002279684FF0FF3000F02FFD66
:1021D000064A7B681360002300E001231846083795
:1021E000BD4680BD040000200C0000200800002037
:1021F00080B400AF064B1B781A46064B1B6813448D
:10220000044A136000BFBD465DF8047B704700BF01
:102210000C000020E403002080B400AF034B1B68D7
:102220001846BD465DF8047B704700BFE4030020FC
:1022300080B584B000AF7860FFF7EEFFB8607B68D0
:10224000FB60FB68B3F1FF3F05D00A4B1B781A46D1
:10225000FB681344FB6000BFFFF7DEFF0246BB686C
:10226000D31AFA689A42F7D800BF00BF1037BD46AC
:1022700080BD00BF0C00002080B584B000AF786046
:102280000023FB737B68002B01D1012333E07B68C3
:102290001B6C002B09D17868FFF730FC7B680022AB
:1022A0005A647B68002283F83C207B681B6C03F037
:1022B0001003002B18D17B681B6C23F4885323F088
:1022C000020343F002027B681A64786800F0D8FACF
:1022D0007B6800225A647B681B6C23F0030343F085
:1022E00001027B681A6401E00123FB737B68002212
:1022F00083F83C20FB7B18461037BD4680BD0000AC
:1023000080B485B000AF78600023BB607B6893F831
:102310003C30012B01D10223B2E07B68012283F81B
:102320003C207B681B689B6803F00103012B18D0DD
:102330007B681B689A687B681B6842F001029A60A0
:10234000524B1B68524AA2FB03239A0C13465B00B4
:102350001344BB6002E0BB68013BBB60BB68002B61
:10236000F9D17B681B689B6803F00103012B7AD1CC
:102370007B681B6C23F4E06323F0010343F4807259
:102380007B681A647B681B685B6803F48063002BBE
:1023900007D07B681B6C23F4405343F480527B6866
:1023A0001A647B681B6C03F48053B3F5805F06D11D
:1023B0007B685B6C23F006027B685A6402E07B68F2
:1023C00000225A647B68002283F83C20314BFB607A
:1023D0007B681B686FF022021A60FB685B6803F081
:1023E0001F03002B2AD17B681B682B4A934215D010
:1023F0007B681B68294A934205D1264B5B6803F032
:102400001F03002B0AD07B681B68254A934236D1F4
:10241000204B5B6803F01003002B30D17B681B68F6
:102420009B6803F04053002B29D17B681B689A6896
:102430007B681B6842F080429A6020E07B681B68E2
:10244000154A93421BD17B681B689B6803F040537D
:10245000002B14D17B681B689A687B681B6842F06C
:1024600080429A600BE07B681B6C43F010027B6833
:102470001A647B685B6C43F001027B685A6400233A
:1024800018461437BD465DF8047B704704000020F1
:1024900083DE1B4300230140002001400021014056
:1024A0000022014080B483B000AF78607B6893F86D
:1024B0003C30012B01D1022321E07B68012283F80B
:1024C0003C207B681B689A687B681B6822F00102CD
:1024D0009A607B681B689B6803F00103002B09D19D
:1024E0007B681B6C23F4885323F0010343F0010243
:1024F0007B681A647B68002283F83C20002318461E
:102500000C37BD465DF8047B704780B584B000AFE2
:10251000786039600023FB607B681B689B6803F46C
:102520008063B3F5806F13D17B681B689B6803F4ED
:102530008073B3F5807F0BD17B681B6C43F0200266
:102540007B681A647B68002283F83C20012363E0E7
:10255000FFF762FEF86021E03B68B3F1FF3F1DD05A
:102560003B68002B07D0FFF757FE0246FB68D31AE3
:102570003A689A4212D27B681B681B6803F0020318
:10258000022B0BD07B681B6C43F004027B681A643F
:102590007B68002283F83C2003233DE07B681B68B6
:1025A0001B6803F00203022BD6D17B681B686FF017
:1025B00012021A607B681B6C43F400727B681A6419
:1025C0007B681B689B6803F04053002B23D17B681A
:1025D0001B7E002B1FD17B681B68DB6A03F4700332
:1025E000002B06D07B681B689B6803F48063002B7C
:1025F00011D17B681B6C23F480727B681A647B6842
:102600001B6C03F48053002B05D17B681B6C43F0DB
:1026100001027B681A64002318461037BD4680BD4E
:1026200080B483B000AF78607B681B68DB6C1846B1
:102630000C37BD465DF8047B7047000080B485B060
:1026400000AF786039600023BB607B6893F83C3052
:10265000012B01D1022305E17B68012283F83C2094
:102660003B681B68092B25D97B681B68D9683B68C8
:102670001B689BB21A4613465B0013441E3B07229D
:1026800002FA03F3DA437B681B680A40DA607B686E
:102690001B68D9683B689A683B681B689BB2184600
:1026A00003465B0003441E3B9A407B681B680A4359
:1026B000DA6022E07B681B6819693B681B689BB283
:1026C0001A4613465B001344072202FA03F3DA4367
:1026D0007B681B680A401A617B681B6819693B6844
:1026E0009A683B681B689BB2184603465B0003442C
:1026F0009A407B681B680A431A613B685B68062B3B
:1027000024D87B681B68596B3B685A6813469B004A
:102710001344053B1F2202FA03F3DA437B681B686C
:102720000A405A637B681B68596B3B681B689BB205
:1027300018463B685A6813469B001344053B00FA51
:1027400003F27B681B680A435A634CE03B685B6892
:102750000C2B24D87B681B68196B3B685A6813469E
:102760009B001344233B1F2202FA03F3DA437B68E6
:102770001B680A401A637B681B68196B3B681B68FF
:102780009BB218463B685A6813469B001344233B90
:1027900000FA03F27B681B680A431A6323E07B6834
:1027A0001B68D96A3B685A6813469B001344413B37
:1027B0001F2202FA03F3DA437B681B680A40DA62DD
:1027C0007B681B68D96A3B681B689BB218463B68EC
:1027D0005A6813469B001344413B00FA03F27B689E
:1027E0001B680A43DA62224BFB607B681B68214A44
:1027F000934209D13B681B68122B05D1FB685B68CB
:1028000043F48002FB685A607B681B68194A934254
:1028100023D13B681B68102B03D03B681B68112B2E
:102820001BD1FB685B6843F40002FB685A603B689D
:102830001B68102B11D1104B1B68104AA2FB0323FD
:102840009A0C13469B0013445B00BB6002E0BB681C
:10285000013BBB60BB68002BF9D17B68002283F889
:102860003C20002318461437BD465DF8047B7047B2
:1028700000230140002001400400002083DE1B43B0
:1028800080B485B000AF7860794BFB60FB685B6813
:1028900023F44032FB685A60FB685A687B685B68C7
:1028A0001A43FB685A607B681B685A687B681B6820
:1028B00022F480725A607B681B6859687B681B69C8
:1028C0001A027B681B680A435A607B681B685A6857
:1028D0007B681B6822F040725A607B681B685968ED
:1028E0007B689A687B681B680A435A607B681B6830
:1028F0009A687B681B6822F400629A607B681B6898
:1029000099687B68DA687B681B680A439A607B6811
:102910009B6A584A934222D07B681B689A687B68FE
:102920001B6822F070629A607B681B6899687B68FC
:102930009A6A7B681B680A439A607B681B689A687E
:102940007B681B6822F040529A607B681B6899681C
:102950007B68DA6A7B681B680A439A600FE07B68D1
:102960001B689A687B681B6822F070629A607B68BB
:102970001B689A687B681B6822F040529A607B68EB
:102980001B689A687B681B6822F002029A607B6869
:102990001B6899687B681B7E5A007B681B680A432A
:1029A0009A607B6893F82030002B1BD07B681B68F3
:1029B0005A687B681B6842F400625A607B681B6837
:1029C0005A687B681B6822F460425A607B681B6807
:1029D00059687B685B6A013B5A037B681B680A4342
:1029E0005A6007E07B681B685A687B681B6822F4A2
:1029F00000625A607B681B68DA6A7B681B6822F495
:102A00007002DA627B681B68D96A7B68DB69013B0C
:102A10001A057B681B680A43DA627B681B689A6840
:102A20007B681B6822F400729A607B681B68996857
:102A30007B6893F830305A027B681B680A439A60BF
:102A40007B681B689A687B681B6822F480629A60C6
:102A50007B681B6899687B685B699A027B681B6866
:102A60000A439A6000BF1437BD465DF8047B704787
:102A7000002301400100000F80B485B000AF7860F2
:102A80007B6803F00703FB600C4BDB68BB60BA6834
:102A90004FF6FF031340BB60FB681A02BB68134389
:102AA00043F0BF6343F40033BB60044ABB68D360A8
:102AB00000BF1437BD465DF8047B704700ED00E0B1
:102AC00080B400AF044BDB681B0A03F00703184611
:102AD000BD465DF8047B704700ED00E080B483B034
:102AE00000AF0346FB7197F90730002B0BDBFB7936
:102AF00003F01F02074997F907305B09012000FA2C
:102B000002F241F8232000BF0C37BD465DF8047B7C
:102B1000704700BF00E100E080B483B000AF03461F
:102B20003960FB7197F90730002B0ADB3B68DAB29A
:102B30000C4997F907301201D2B20B4483F80023F5
:102B40000AE03B68DAB20849FB7903F00F03043B63
:102B50001201D2B20B441A7600BF0C37BD465DF8A5
:102B6000047B704700E100E000ED00E080B489B034
:102B700000AFF860B9607A60FB6803F00703FB619F
:102B8000FB69C3F10703042B28BF0423BB61FB6966
:102B90000433062B02D9FB69033B00E000237B6171
:102BA0004FF0FF32BB6902FA03F3DA43BB681A4005
:102BB0007B699A404FF0FF317B6901FA03F3D943F7
:102BC0007B680B40134318462437BD465DF8047BF1
:102BD0007047000080B582B000AF78607B68013B31
:102BE000B3F1807F01D301230FE00A4A7B68013BE8
:102BF00053600F214FF0FF30FFF78EFF054B00228F
:102C00009A60044B07221A60002318460837BD4615
:102C100080BD00BF10E000E080B582B000AF7860FA
:102C20007868FFF729FF00BF0837BD4680BD80B533
:102C300086B000AF0346B9607A60FB7300237B6106
:102C4000FFF73EFF78617A68B9687869FFF78EFF11
:102C5000024697F90F3011461846FFF75DFF00BF97
:102C60001837BD4680BD80B582B000AF0346FB710A
:102C700097F907301846FFF731FF00BF0837BD4608
:102C800080BD80B582B000AF78607868FFF7A2FFA2
:102C9000034618460837BD4680BD000080B489B0A1
:102CA00000AF7860396000237B6100233B61002323
:102CB000BB610023FB616BE10122FB6902FA03F3B4
:102CC0007B613B681B687A6913403B613A697B69A9
:102CD0009A4240F05A813B685B6803F00303012B82
:102CE00005D03B685B6803F00303022B30D17B689F
:102CF0009B68BB61FB695B00032202FA03F3DB43C1
:102D0000BA691340BB613B68DA68FB695B0002FA91
:102D100003F3BA691343BB617B68BA699A607B6845
:102D20005B68BB610122FB6902FA03F3DB43BA690A
:102D30001340BB613B685B681B0903F00102FB6940
:102D400002FA03F3BA691343BB617B68BA695A603C
:102D50003B685B6803F00303032B17D07B68DB68D9
:102D6000BB61FB695B00032202FA03F3DB43BA6930
:102D70001340BB613B689A68FB695B0002FA03F38E
:102D8000BA691343BB617B68BA69DA603B685B6808
:102D900003F00303022B23D1FB69DA087B680832B6
:102DA00053F82230BB61FB6903F007039B000F223D
:102DB00002FA03F3DB43BA691340BB613B681A694B
:102DC000FB6903F007039B0002FA03F3BA6913439C
:102DD000BB61FB69DA087B680832B96943F82210E5
:102DE0007B681B68BB61FB695B00032202FA03F38B
:102DF000DB43BA691340BB613B685B6803F00302C5
:102E0000FB695B0002FA03F3BA691343BB617B6899
:102E1000BA691A603B685B6803F44033002B00F02A
:102E2000B4800023FB60604B5B6C5F4A43F48043DB
:102E300053645D4B5B6C03F48043FB60FB685B4A4F
:102E4000FB699B08023352F82330BB61FB6903F036
:102E500003039B000F2202FA03F3DB43BA6913401A
:102E6000BB617B68524A93422BD07B68514A9342A4
:102E700025D07B68504A93421FD07B684F4A9342CB
:102E800019D07B684E4A934213D07B684D4A9342D7
:102E90000DD07B684C4A934207D07B684B4A9342E3
:102EA00001D107230EE008230CE006230AE00523E6
:102EB00008E0042306E0032304E0022302E00123E8
:102EC00000E00023FA6902F0030292009340BA691D
:102ED0001343BB613549FB699B080233BA6941F86A
:102EE00023203B4B9B68BB613B69DB43BA691340C2
:102EF000BB613B685B6803F48013002B03D0BA69A5
:102F00003B691343BB61324ABB699360304BDB685A
:102F1000BB613B69DB43BA691340BB613B685B68DB
:102F200003F40013002B03D0BA693B691343BB6160
:102F3000274ABB69D360264B5B68BB613B69DB43B7
:102F4000BA691340BB613B685B6803F40033002B34
:102F500003D0BA693B691343BB611D4ABB69536027
:102F60001B4B1B68BB613B69DB43BA691340BB6108
:102F70003B685B6803F48033002B03D0BA693B697C
:102F80001343BB61124ABB691360FB690133FB61E8
:102F9000FB690F2B7FF690AE00BF00BF2437BD4604
:102FA0005DF8047B704700BF0038024000380140E4
:102FB000000002400004024000080240000C0240F1
:102FC000001002400014024000180240001C0240A1
:102FD000003C014080B485B000AF78600B467B8038
:102FE0007B681A697B881340002B02D00123FB7396
:102FF00001E00023FB73FB7B18461437BD465DF8E8
:10300000047B704780B483B000AF78600B467B8050
:1030100013467B707B78002B03D07A887B689A619B
:1030200003E07B881A047B689A6100BF0C37BD46B9
:103030005DF8047B704780B586B002AF78607B682E
:10304000002B01D1012359E07B681B68FB607B6882
:1030500093F8D533DBB2002B06D17B68002283F8CE
:10306000D423786808F0DCFB7B68032283F8D5233F
:10307000FB68B3F1A04F02D17B6800229A717B6894
:103080001B68184605F0E9F97B6818687B681A7CAC
:103090008DF8002004330ECB05F06AF90346002BAF
:1030A00005D07B68022283F8D523012326E07B68C4
:1030B0001B680121184605F0E1F90346002B05D0F5
:1030C0007B68022283F8D523012317E07B68186808
:1030D0007B681A7C8DF8002004330ECB05F08AFB48
:1030E0000346002B05D07B68022283F8D5230123F9
:1030F00004E07B68012283F8D523002318461037AB
:10310000BD4680BD90B58BB004AF786008461146CF
:103110001A460346FB700B46BB7013467B703B8E12
:103120007B617B6893F8D433012B01D102239DE0AE
:103130007B68012283F8D423FA78796813461B014F
:103140009B1A9B000B44193300221A70FA78796895
:1031500013461B019B1A9B000B4414337A781A7098
:10316000FA78796813461B019B1A9B000B441533B0
:10317000FA781A70FA78796813461B019B1A9B003B
:103180000B44263397F82C201A70FA78BB7803F09A
:103190007F03D8B2796813461B019B1A9B000B442E
:1031A000163302461A70FB781946786800F0C8FB9F
:1031B00097F90230002B0ADAFA78796813461B0176
:1031C0009B1A9B000B44173301221A7009E0FA780E
:1031D000796813461B019B1A9B000B44173300228E
:1031E0001A707B681B68184605F068FC386197F810
:1031F0002C30012B0BD197F82830012B07D13B69DC
:10320000002B04D17B69BC2B01D9BC237B61FA78EC
:10321000796813461B019B1A9B000B44183397F8DF
:1032200028201A70FA787B6998B2796813461B01D6
:103230009B1A9B000B44283302461A807B6818684F
:103240007B699BB27C78BA78F978029397F82C3036
:10325000019397F828300093234605F057FC034666
:10326000FB737B68002283F8D423FB7B18461C3752
:10327000BD4690BD80B584B000AF78600B46FB7052
:103280000023FB737B6893F8D433012B01D1022315
:103290000FE07B68012283F8D4237B681B68FA78EF
:1032A0001146184605F0E9FF7B68002283F8D42315
:1032B000FB7B18461037BD4680BD000080B582B04C
:1032C00000AF7860084611461A460346FB700B466D
:1032D000BB7013467B70FA78796813461B019B1A02
:1032E0009B000B441733BA781A70FA787968134642
:1032F0001B019B1A9B000B4426337A781A703B7C87
:10330000002B14D1FA78796813461B019B1A9B0095
:103310000B442A3303221A70FA78796813461B018A
:103320009B1A9B000B4419333A7F1A7009E0FA7814
:10333000796813461B019B1A9B000B442A33022217
:103340001A707B78032B00F2028101A252F823F05D
:10335000613300083935000825340008AF3400080F
:103360003B7C012B40F0F580BB78002B2DD13B8BB3
:10337000002B09D1FA78796813461B019B1A9B0030
:103380000B443D3301221A70FA78796813461B0109
:103390009B1A9B000B443D331B78002B0AD1FA7813
:1033A000796813461B019B1A9B000B442A330022A9
:1033B0001A70CEE0FA78796813461B019B1A9B00BD
:1033C0000B442A3302221A70C3E0FA787968134654
:1033D0001B019B1A9B000B441A331B78012B40F0F6
:1033E000B880FA78796813461B019B1A9B000B443E
:1033F0003C331B78002B0AD1FA78796813461B01FD
:103400009B1A9B000B442A3300221A70A1E0FA7821
:10341000796813461B019B1A9B000B442A33022236
:103420001A7096E0BB78002B20D1FA7879681346A1
:103430001B019B1A9B000B443D331B78002B0AD1C8
:10344000FA78796813461B019B1A9B000B442A33B8
:1034500000221A707EE0FA78796813461B019B1AE5
:103460009B000B442A3302221A7073E0FA787968C1
:1034700013461B019B1A9B000B443C331B78002B0B
:103480000AD1FA78796813461B019B1A9B000B44FA
:103490002A3300221A705DE0FA78796813461B011E
:1034A0009B1A9B000B442A3302221A7052E0BB780D
:1034B000002B20D1FA78796813461B019B1A9B00D8
:1034C0000B443D331B78002B0AD1FA7879681346F8
:1034D0001B019B1A9B000B442A3300221A7039E00F
:1034E000FA78796813461B019B1A9B000B442A3318
:1034F00002221A702EE0FA78796813461B019B1A93
:103500009B000B443C331B78002B0AD1FA78796876
:1035100013461B019B1A9B000B442A3300221A708E
:1035200018E0FA78796813461B019B1A9B000B443C
:103530002A3302221A700DE0FA78796813461B01CB
:103540009B1A9B000B442A3300221A7002E000BF32
:1035500000E000BFFA78796813461B019B1A9B00B4
:103560000B442C337A691A60FA78398B78681346E1
:103570001B019B1A9B00034434331960FA78796865
:1035800013461B019B1A9B000B444C3300221A70FC
:10359000FA78796813461B019B1A9B000B44383359
:1035A00000221A60FA78796813461B019B1A9B0067
:1035B0000B441533FA781A70FA78796813461B01B0
:1035C0009B1A9B000B444D3300221A707B681868CD
:1035D000FA7813461B019B1A9B0010337A68134438
:1035E000191D7B689B791A4605F0BCFB03461846FB
:1035F0000837BD4680BD00BF80B586B000AF78609B
:103600007B681B683B613B69FB607B681B681846F5
:1036100005F0AAF80346012B40F0FB807B681B688D
:10362000184605F06DF80346002B00F0F1807B682A
:103630001B68184605F064F8034603F40013B3F55D
:10364000001F04D17B681B684FF400125A617B682D
:103650001B68184605F054F8034603F48013B3F5CD
:10366000801F04D17B681B684FF480125A617B680D
:103670001B68184605F044F8034603F08063B3F175
:10368000806F04D17B681B684FF080625A617B6851
:103690001B68184605F034F8034603F00203022BBA
:1036A00003D17B681B6802225A617B681B6818463D
:1036B00005F026F8034603F00053B3F1005F20D174
:1036C0007B681B684FF000525A61FB6803F5886302
:1036D0001B6803F00103002B13D11021386904F09B
:1036E00019FF386904F048FF7B685B7A022B05D12B
:1036F0007B681B680121184605F040F9786808F0DE
:103700000DF97B681B68184604F0FAFF034603F0C6
:103710008073B3F1807F02D1786801F04DFD7B6842
:103720001B68184604F0ECFF034603F00803082B5F
:1037300006D1786808F0D6F87B681B6808225A61C1
:103740007B681B68184604F0DBFF034603F0007338
:10375000B3F1007F39D17B681B68184605F07CFD0A
:10376000B86000237B6125E07B6903F00F03BA6832
:1037700022FA03F303F00103002B18D07B695A01EE
:10378000FB68134403F5A0631B6803F40043B3F51F
:10379000004F06D17B69DBB21946786800F005F965
:1037A00005E07B69DBB21946786800F067FF7B694A
:1037B00001337B617B685B791A467B699342D3D383
:1037C0007B681B684FF000725A617B681B68184663
:1037D00004F096FF034603F01003102B01D10123E0
:1037E00000E00023002B14D07B681B689A697B687B
:1037F0001B6822F010029A61786801F0FEFB7B687A
:103800001B689A697B681B6842F010029A6100E0AD
:1038100000BF1837BD4680BD80B582B000AF78606C
:103820007B6893F8D433012B01D1022313E07B682A
:10383000012283F8D4237B681B680121184605F018
:1038400004F97B681B68184604F0F6FD7B680022CB
:1038500083F8D423002318460837BD4680BD80B5C1
:1038600082B000AF78607B6893F8D433012B01D12C
:1038700002230DE07B68012283F8D4237B681B6858
:10388000184605F057FE7B68002283F8D4230023F6
:1038900018460837BD4680BD80B582B000AF78605D
:1038A0007B681B68184605F0A6F8034618460837DB
:1038B000BD4680BD80B483B000AF78600B46FB701E
:1038C000FA78796813461B019B1A9B000B444C3312
:1038D0001B7818460C37BD465DF8047B704780B4F2
:1038E00083B000AF78600B46FB70FA7879681346B6
:1038F0001B019B1A9B000B4438331B6818460C377E
:10390000BD465DF8047B704780B582B000AF78603B
:103910007B681B68184605F0E8F803461846083728
:10392000BD4680BD80B582B000AF78607B681B6803
:10393000184605F0C3F8034618460837BD4680BD53
:1039400080B483B000AF78600B46FB70FA7879687A
:1039500013461B019B1A9B000B441A3300221A705A
:10396000FA78796813461B019B1A9B000B441B33A2
:1039700000221A70FA78796813461B019B1A9B0083
:103980000B44253300221A70FA78796813461B011C
:103990009B1A9B000B44243300221A700023184604
:1039A0000C37BD465DF8047B704780B586B000AF2C
:1039B00078600B46FB707B681B687B617B693B61B1
:1039C0007B681B68FA781146184604F0ACFE034683
:1039D00003F00403042B1AD1FB785A013B6913440A
:1039E00003F5A0631A4604239360FA7879681346B6
:1039F0001B019B1A9B000B444D3307221A707B68F6
:103A00001B68FA781146184605F037FC9EE07B6883
:103A10001B68FA781146184604F085FE034603F445
:103A20008073B3F5807F1BD1FB785A013B69134447
:103A300003F5A0631A464FF480739360FA787968AF
:103A400013461B019B1A9B000B444D3308221A702E
:103A50007B681B68FA781146184605F00EFC75E085
:103A60007B681B68FA781146184604F05CFE034632
:103A700003F00803082B1AD1FB785A013B69134461
:103A800003F5A0631A4608239360FA787968134611
:103A90001B019B1A9B000B444D3306221A707B6856
:103AA0001B68FA781146184605F0E7FB4EE07B6884
:103AB0001B68FA781146184604F035FE034603F4F5
:103AC0008063B3F5806F1BD1FB785A013B691344C7
:103AD00003F5A0631A464FF480639360FA7879681F
:103AE00013461B019B1A9B000B444D3309221A708D
:103AF0007B681B68FA781146184605F0BEFB25E086
:103B00007B681B68FA781146184604F00CFE0346E1
:103B100003F08003802B19D1FB785A013B691344D1
:103B200003F5A0631A4680239360FA7879681346F8
:103B30001B019B1A9B000B444D3307221A707B68B4
:103B40001B68FA781146184605F097FB7B681B68DE
:103B5000FA781146184604F0E6FD034603F40073B4
:103B6000B3F5007F12D17B681B68FA7811461846BE
:103B700005F083FBFB785A013B69134403F5A0630E
:103B80001A464FF40073936000F075BD7B681B68A4
:103B9000FA781146184604F0C6FD034603F0010307
:103BA000012B40F02881FB785A013B69134403F54F
:103BB000A0631A4620239360FA78796813461B01A4
:103BC0009B1A9B000B441B331B78012B19D1FA78ED
:103BD000796813461B019B1A9B000B441B33002280
:103BE0001A70FB785A013B69134403F5A0635B68C4
:103BF000FA7851013A690A4402F5A06223F480334D
:103C000053607B689B79002B1BD0FA787968134648
:103C10001B019B1A9B000B4430331968FB785A0137
:103C20003B69134403F5A0631B69C3F31203FA78DD
:103C3000C91A786813461B019B1A9B00034438334A
:103C40001960FA78796813461B019B1A9B000B4494
:103C50004D3301221A70FA78796813461B019B1ABA
:103C60009B000B44443300221A60FB785A013B69E5
:103C7000134403F5A0631A4601239360FA78796828
:103C800013461B019B1A9B000B4426331B78002B09
:103C90000AD0FA78796813461B019B1A9B000B44E3
:103CA00026331B78022B10D17B681B68FA781146EB
:103CB000184605F0E2FAFB785A013B69134403F514
:103CC000A0631A46102393603DE0FA7879681346A2
:103CD0001B019B1A9B000B4426331B78032B0AD035
:103CE000FA78796813461B019B1A9B000B44263314
:103CF0001B78012B27D1FB785A013B69134403F54C
:103D0000A0631B68FA7851013A690A4402F5A0627F
:103D100043F000531360FA78796813461B019B1A2D
:103D20009B000B444C3301221A70FA7879681346D1
:103D30001B019B1A9B000B444C331A78FB781946E5
:103D4000786807F0F9FD7B689B79012B3BD1FA7805
:103D5000796813461B019B1A9B000B443833196882
:103D6000FA78786813461B019B1A9B00034428339A
:103D70001B880B44591EFA78786813461B019B1A5E
:103D80009B00034428331B88B1FBF3F303F00103CA
:103D9000002B00F07084FA78796813461B019B1A97
:103DA0009B000B443C331B78FA7883F00103D8B2B4
:103DB000796813461B019B1A9B000B443C33024657
:103DC0001A7000F058BCFA78796813461B019B1AE8
:103DD0009B000B443C331B78FA7883F00103D8B284
:103DE000796813461B019B1A9B000B443C33024627
:103DF0001A7000F040BC7B681B68FA7811461846C0
:103E000004F091FC034603F02003202B31D1FB7812
:103E10005A013B69134403F5A0631A4620239360BB
:103E2000FA78796813461B019B1A9B000B441A33DE
:103E30001B78012B40F01F84FA78796813461B0128
:103E40009B1A9B000B441B3301221A70FA78796885
:103E500013461B019B1A9B000B444D3303221A701F
:103E60007B681B68FA781146184605F006FA00F0E0
:103E700002BC7B681B68FA781146184604F053FCB4
:103E8000034603F00203022B40F00583FB785A013E
:103E90003B69134403F5A0631A4602239360FA7842
:103EA000796813461B019B1A9B000B444D331B780A
:103EB000012B14D1FA78796813461B019B1A9B00D9
:103EC0000B444D3302221A70FA78796813461B01AD
:103ED0009B1A9B000B444C3301221A70CCE2FA78F7
:103EE000796813461B019B1A9B000B444D331B78CA
:103EF000062B14D1FA78796813461B019B1A9B0094
:103F00000B444D3302221A70FA78796813461B016C
:103F10009B1A9B000B444C3305221A70ACE2FA78D2
:103F2000796813461B019B1A9B000B444D331B7889
:103F3000072B0BD0FA78796813461B019B1A9B005C
:103F40000B444D331B78092B40F0A680FA78796832
:103F500013461B019B1A9B000B444D3302221A701F
:103F6000FA78796813461B019B1A9B000B44443373
:103F70001B68591C786813461B019B1A9B0003445D
:103F800044331960FA78796813461B019B1A9B0029
:103F90000B4444331B68022B43D9FA7879681346E3
:103FA0001B019B1A9B000B44443300221A60FA78D1
:103FB000796813461B019B1A9B000B441A331B782C
:103FC000012B23D1FA78796813461B019B1A9B00B9
:103FD0000B441B3300221A70FA78796813461B01D0
:103FE0009B1A9B000B441C3300221A70FB785A0169
:103FF0003B69134403F5A0635B68FA7851013A69A1
:104000000A4402F5A06223F480335360FA78796899
:1040100013461B019B1A9B000B444C3304221A705D
:1040200029E2FA78796813461B019B1A9B000B441E
:104030004C3302221A70FA78796813461B019B1AD6
:104040009B000B4426331B78002B0BD0FA78796841
:1040500013461B019B1A9B000B4426331B78022B33
:1040600040F00982FB785A013B69134403F5A063D1
:104070001B68FB60FB6823F08043FB60FB6843F038
:104080000043FB60FB785A013B69134403F5A063CE
:104090001A46FB681360EEE1FA78796813461B0153
:1040A0009B1A9B000B444D331B78052B40F0C880B6
:1040B000FA78796813461B019B1A9B000B444D3319
:1040C00002221A70FA78796813461B019B1A9B002A
:1040D0000B441B331B78012B40F0CE81FA787968B2
:1040E00013461B019B1A9B000B4426331B78032BA2
:1040F0006BD1FA78796813461B019B1A9B000B441D
:1041000048331B68591C786813461B019B1A9B0097
:10411000034448331960FA78796813461B019B1AE7
:104120009B000B4448331B68022B43D9FA7879680B
:1041300013461B019B1A9B000B44483300221A6054
:10414000FA78796813461B019B1A9B000B441B33BA
:1041500000221A70FA78796813461B019B1A9B009B
:104160000B4444331B68022B09D8FA78796813464C
:104170001B019B1A9B000B441C3301221A70FB7815
:104180005A013B69134403F5A0635B68FA78510157
:104190003A690A4402F5A06223F480335360FA7846
:1041A000796813461B019B1A9B000B444C33042275
:1041B0001A7014E0FA78796813461B019B1A9B0069
:1041C0000B444C3302221A7009E0FA7879681346DE
:1041D0001B019B1A9B000B444C3302221A70FA7885
:1041E000796813461B019B1A9B000B4426331B78EE
:1041F000002B0BD0FA78796813461B019B1A9B00A1
:104200000B4426331B78022B40F03681FB785A0191
:104210003B69134403F5A0631B68FB60FB6823F054
:104220008043FB60FB6843F00043FB60FB785A016E
:104230003B69134403F5A0631A46FB6813601BE156
:10424000FA78796813461B019B1A9B000B444D3387
:104250001B78032B40F08180FA78796813461B01A4
:104260009B1A9B000B444D3302221A70FA7879682E
:1042700013461B019B1A9B000B441B331B78012B1D
:1042800040F0FA80FA78796813461B019B1A9B006C
:104290000B444C3302221A70FB785A013B691344D9
:1042A00003F5A0635B68FA7851013A690A4402F5A4
:1042B000A06243F480335360FB785A013B69134496
:1042C00003F5A063DB68FA7851013A690A4402F504
:1042D000A06243F04003D360FB785A013B6913446A
:1042E00003F5A063DB68FA7851013A690A4402F5E4
:1042F000A06223F02003D360FA78796813461B018B
:104300009B1A9B000B4426331B78002B0BD0FA78AA
:10431000796813461B019B1A9B000B4426331B78BC
:10432000022B40F0A980FB785A013B69134403F546
:10433000A0631B68FB60FB6823F08043FB60FB68A5
:1043400043F00043FB60FB785A013B69134403F5DB
:10435000A0631A46FB6813608EE0FA78796813460A
:104360001B019B1A9B000B444D331B78042B43D13C
:10437000FA78796813461B019B1A9B000B444D3356
:1043800002221A70FA78796813461B019B1A9B0067
:104390000B444C3302221A70FA78796813461B01D9
:1043A0009B1A9B000B4426331B78002B0AD0FA780B
:1043B000796813461B019B1A9B000B4426331B781C
:1043C000022B59D1FB785A013B69134403F5A063D2
:1043D0001B68FB60FB6823F08043FB60FB6843F0D5
:1043E0000043FB60FB785A013B69134403F5A0636B
:1043F0001A46FB6813603FE0FA78796813461B01A0
:104400009B1A9B000B444D331B78082B26D1FA785E
:10441000796813461B019B1A9B000B444D33022203
:104420001A70FA78796813461B019B1A9B000B449B
:1044300044331B68591C786813461B019B1A9B0068
:10444000034444331960FA78796813461B019B1AB8
:104450009B000B444C3304221A700DE0FA78796803
:1044600013461B019B1A9B000B444D331B78022BF8
:1044700000F0008100E000BFFA78796813461B0164
:104480009B1A9B000B444C331A78FB7819467868CA
:1044900007F052FAEFE07B681B68FA78114618467D
:1044A00004F041F9034603F04003402B2FD1FB7881
:1044B0005A013B69134403F5A0631A4640239360F5
:1044C000FA78796813461B019B1A9B000B444D3305
:1044D00005221A70FA78796813461B019B1A9B0013
:1044E0000B441A331B78002B09D1FA7879681346EC
:1044F0001B019B1A9B000B44443300221A607B680B
:104500001B68FA781146184604F0B7FEB3E07B68E2
:104510001B68FA781146184604F005F9034603F0C3
:104520001003102B40F0A780FA78796813461B011E
:104530009B1A9B000B4426331B78032B1BD1FA7864
:10454000796813461B019B1A9B000B4444330022DD
:104550001A60FA78796813461B019B1A9B000B447A
:104560004D3304221A707B681B68FA78114618468E
:1045700004F083FE3FE0FA78796813461B019B1A2A
:104580009B000B4426331B78002B0AD0FA787968FD
:1045900013461B019B1A9B000B4426331B78022BEE
:1045A00029D1FA78796813461B019B1A9B000B44AA
:1045B000443300221A607B689B79002B0AD0FA787A
:1045C000796813461B019B1A9B000B441B331B7815
:1045D000012B10D1FA78796813461B019B1A9B00B6
:1045E0000B444D3304221A707B681B68FA7811461D
:1045F000184604F042FEFA78796813461B019B1AAC
:104600009B000B441B331B78012B29D1FA78796866
:1046100013461B019B1A9B000B441B3300221A708C
:10462000FB785A013B69134403F5A0635B68FA7891
:1046300051013A690A4402F5A06223F480335360C1
:10464000FB785A013B69134403F5A063DB68FA78F1
:1046500051013A690A4402F5A06243F02003D36095
:10466000FB785A013B69134403F5A0631A461023F3
:10467000936000E000BF1837BD4680BD80B586B0AE
:1046800000AF78600B46FB707B681B687B617B69C1
:104690003B617B681B68FA781146184604F043F8C2
:1046A000034603F00403042B1BD1FB785A013B693A
:1046B000134403F5A0631A4604239360FA787968DB
:1046C00013461B019B1A9B000B444D3307221A70A3
:1046D0007B681B68FA781146184604F0CEFD00F09E
:1046E00089BC7B681B68FA781146184604F01BF8F1
:1046F000034603F02003202B40F08280FB785A0110
:104700003B69134403F5A0631A4620239360FA78AB
:10471000796813461B019B1A9B000B4419331B78C5
:10472000012B24D1FA78796813461B019B1A9B0050
:104730000B44193300221A70FA78796813461B016A
:104740009B1A9B000B444C3302221A70FA7879684A
:1047500013461B019B1A9B000B444D3303221A7016
:104760007B681B68FA781146184604F086FDFA78D3
:10477000796813461B019B1A9B000B441A331B7864
:10478000012B40F03784FA78796813461B019B1A95
:104790009B000B441B331B78002B40F02B84FA78D2
:1047A000796813461B019B1A9B000B4426331B7828
:1047B000012B09D0FA78796813461B019B1A9B00DC
:1047C0000B441B3301221A70FA78796813461B01D7
:1047D0009B1A9B000B444D3303221A707B681B68A5
:1047E000FA781146184604F048FDFA7879681346BD
:1047F0001B019B1A9B000B44443300221A60F9E30F
:104800007B681B68FA781146184603F08CFF034654
:1048100003F40073B3F5007F11D1FB785A013B69B3
:10482000134403F5A0631A464FF4007393607B684A
:104830001B68FA781146184604F01FFDDAE37B681E
:104840001B68FA781146184603F06DFF034603F023
:104850000103012B68D1FA78796813461B019B1A72
:104860009B000B44443300221A607B681B68FA7873
:104870001146184603F057FF034603F04003402B50
:1048800012D1FA78796813461B019B1A9B000B44DE
:10489000193301221A70FB785A013B69134403F55E
:1048A000A0631A4640239360FA78796813461B0187
:1048B0009B1A9B000B441B331B78002B19D0FA78F2
:1048C000796813461B019B1A9B000B441B33002283
:1048D0001A70FB785A013B69134403F5A0635B68C7
:1048E000FA7851013A690A4402F5A06223F4803350
:1048F0005360FB785A013B69134403F5A0631A46E1
:1049000001239360FA78796813461B019B1A9B0078
:104910000B444D3301221A707B681B68FA781146EC
:10492000184604F0AAFC65E37B681B68FA78114618
:10493000184603F0F8FE034603F04003402B39D13C
:10494000FA78796813461B019B1A9B000B444D3380
:1049500005221A70FA78796813461B019B1A9B008E
:104960000B441A331B78002B09D1FA787968134667
:104970001B019B1A9B000B44193301221A70FA7811
:10498000796813461B019B1A9B000B444433002299
:104990001A607B681B68FA781146184604F06DFCB3
:1049A000FB785A013B69134403F5A0631A46402380
:1049B00093601FE37B681B68FA781146184603F082
:1049C000B2FE034603F00803082B1AD1FB785A0104
:1049D0003B69134403F5A0631A4608239360FA78F1
:1049E000796813461B019B1A9B000B444D3306222A
:1049F0001A707B681B68FA781146184604F03DFC73
:104A0000F8E27B681B68FA781146184603F08BFEC3
:104A1000034603F01003102B44D1FA78796813464B
:104A20001B019B1A9B000B44443300221A60FA7846
:104A3000796813461B019B1A9B000B444D330422DB
:104A40001A70FA78796813461B019B1A9B000B4475
:104A500019331B78002B14D1FA78796813461B019F
:104A60009B1A9B000B4418331B78002B09D1FA7852
:104A7000796813461B019B1A9B000B4419330122D2
:104A80001A707B681B68FA781146184604F0F5FB2B
:104A9000FB785A013B69134403F5A0631A461023BF
:104AA0009360A7E27B681B68FA781146184603F00A
:104AB0003AFE034603F08003802B40F083807B683E
:104AC0009B79002B11D1FA78796813461B019B1A48
:104AD0009B000B444D3307221A707B681B68FA78E1
:104AE0001146184604F0C9FB62E0FA78796813466B
:104AF0001B019B1A9B000B4444331B68591C7868AC
:104B000013461B019B1A9B00034444331960FA7837
:104B1000796813461B019B1A9B000B4444331B68A6
:104B2000022B22D9FA78796813461B019B1A9B0045
:104B30000B44443300221A60FA78796813461B014B
:104B40009B1A9B000B444C3304221A70FA78796844
:104B500013461B019B1A9B000B444C331A78FB78BD
:104B60001946786806F0E8FE22E0FA78796813467C
:104B70001B019B1A9B000B444C3302221A70FB78DA
:104B80005A013B69134403F5A0631B68FB60FB6893
:104B900023F08043FB60FB6843F00043FB60FB783D
:104BA0005A013B69134403F5A0631A46FB6813607E
:104BB000FB785A013B69134403F5A0631A4680232E
:104BC000936017E27B681B68FA781146184603F079
:104BD000AAFD034603F48063B3F5806F1BD1FA7816
:104BE000796813461B019B1A9B000B444D33092225
:104BF0001A707B681B68FA781146184604F03DFB72
:104C0000FB785A013B69134403F5A0631A464FF43D
:104C100080639360EEE17B681B68FA781146184662
:104C200003F081FD034603F00203022B40F0DF8115
:104C3000FB785A013B69134403F5A0631A4602232B
:104C40009360FA78796813461B019B1A9B000B440A
:104C50004D331B78012B40F09380FA787968134626
:104C60001B019B1A9B000B444D3302221A70FA78E9
:104C7000796813461B019B1A9B000B444C3301229D
:104C80001A70FA78796813461B019B1A9B000B4433
:104C900026331B78022B0BD0FA78796813461B0158
:104CA0009B1A9B000B4426331B78032B40F090810A
:104CB0007B689B79002B15D1FA78796813461B0124
:104CC0009B1A9B000B443D331B78FA7883F0010359
:104CD000D8B2796813461B019B1A9B000B443D33E5
:104CE00002461A707B689B79012B40F07181FA783B
:104CF000796813461B019B1A9B000B4434331B68D5
:104D0000002B00F06581FA78796813461B019B1A25
:104D10009B000B4434331968FA78786813461B01FA
:104D20009B1A9B00034428331B880B44591EFA78B6
:104D3000786813461B019B1A9B00034428331B8889
:104D4000B1FBF3F3BB60BB6803F00103002B00F081
:104D50003F81FA78796813461B019B1A9B000B442C
:104D60003D331B78FA7883F00103D8B27968134693
:104D70001B019B1A9B000B443D3302461A7027E12E
:104D8000FA78796813461B019B1A9B000B444D333C
:104D90001B78032B20D1FA78796813461B019B1AE4
:104DA0009B000B444D3302221A70FA78796813463F
:104DB0001B019B1A9B000B441B331B78012B40F0FB
:104DC0000781FA78796813461B019B1A9B000B44F4
:104DD0004C3302221A70FBE0FA78796813461B0103
:104DE0009B1A9B000B444D331B78042B3AD1FA7865
:104DF000796813461B019B1A9B000B444D3302221A
:104E00001A70FA78796813461B019B1A9B000B44B1
:104E10004C3302221A70FA78796813461B019B1AE8
:104E20009B000B441B331B78012B40F0D180FA7898
:104E3000796813461B019B1A9B000B441B3300220D
:104E40001A70FB785A013B69134403F5A0635B6851
:104E5000FA7851013A690A4402F5A06223F48033DA
:104E60005360B5E0FA78796813461B019B1A9B00E2
:104E70000B444D331B78052B14D1FA78796813460F
:104E80001B019B1A9B000B444D3302221A70FA78C7
:104E9000796813461B019B1A9B000B444C3302227A
:104EA0001A7095E0FA78796813461B019B1A9B00EB
:104EB0000B444D331B78062B14D1FA7879681346CE
:104EC0001B019B1A9B000B444D3302221A70FA7887
:104ED000796813461B019B1A9B000B444C33052237
:104EE0001A7075E0FA78796813461B019B1A9B00CB
:104EF0000B444D331B78072B0AD0FA787968134698
:104F00001B019B1A9B000B444D331B78092B70D15E
:104F1000FA78796813461B019B1A9B000B444D33AA
:104F200002221A70FA78796813461B019B1A9B00BB
:104F30000B4444331B68591C786813461B019B1AA9
:104F40009B00034444331960FA78796813461B01C7
:104F50009B1A9B000B4444331B68022B14D9FA782C
:104F6000796813461B019B1A9B000B4444330022B3
:104F70001A60FA78796813461B019B1A9B000B4450
:104F80004C3304221A7022E0FA78796813461B0128
:104F90009B1A9B000B444C3302221A70FB785A0177
:104FA0003B69134403F5A0631B68FB60FB6823F0B7
:104FB0008043FB60FB6843F00043FB60FB785A01D1
:104FC0003B69134403F5A0631A46FB68136000BFF6
:104FD000FA78796813461B019B1A9B000B444C33EB
:104FE0001A78FB781946786806F0A6FC02E000BF44
:104FF00000E000BF1837BD4680BD80B58AB000AF65
:1050000078607B681B687B627B6A3B627B681B689D
:105010001B6AFB61FB6903F00F03BB61FB695B0C5F
:1050200003F00F037B61FB691B09C3F30A033B61B8
:105030007B69022B04D07B69052B00F0B680B7E0BA
:105040003B69002B00F0B3807968BA6913461B01F5
:105050009B1A9B000B442C331B68002B00F0A7808D
:105060007968BA6913461B019B1A9B000B443833BD
:105070001A683B69D1187868BA6913461B019B1AF4
:105080009B00034434331B68994200F283807B68A1
:1050900018687968BA6913461B019B1A9B000B4478
:1050A0002C331B683A6992B2194603F0D1FA796839
:1050B000BA6913461B019B1A9B000B442C331A68D8
:1050C0003B69D1187868BA6913461B019B1A9B008B
:1050D00003442C3319607968BA6913461B019B1A83
:1050E0009B000B4438331A683B69D1187868BA6959
:1050F00013461B019B1A9B00034438331960BB699C
:105100005A013B6A134403F5A0631B69DB0CC3F32C
:105110000903FB607968BA6913461B019B1A9B005F
:105120000B4428331B881A463B6993423FD1FB68E6
:10513000002B3CD0BB695A013B6A134403F5A063C2
:105140001B68BB60BB6823F08043BB60BB6843F057
:105150000043BB60BB695A013B6A134403F5A0637B
:105160001A46BB6813607968BA6913461B019B1A1B
:105170009B000B443C331B7883F00103D8B2796861
:10518000BA6913461B019B1A9B000B443C33024631
:105190001A700CE07968BA6913461B019B1A9B00D0
:1051A0000B444C3304221A7001E000BF00E000BF42
:1051B00000BF2837BD4680BD80B586B000AF78609F
:1051C0007B681B687B617B693B613B6903F5886396
:1051D0001B68FB603B6903F588631B68BB60BB68A9
:1051E00023F02E03BB60FB6803F00203022B0BD1FC
:1051F000FB6803F00103012B02D1786806F080FB05
:10520000BB6843F00203BB60FB6803F00803082B94
:1052100032D1BB6843F00803BB60FB6803F00403B2
:10522000042B26D17B685B7A022B13D1FB6803F435
:10523000C023B3F5802F06D17B681B680221184676
:1052400003F09CFB11E07B681B680121184603F00A
:1052500095FB0AE07B68DB79012B06D13B6903F5FE
:1052600080631A464EF660235360786806F072FB3E
:1052700002E0786806F07CFBFB6803F02003202B3B
:1052800003D1BB6843F02003BB603B6903F588632F
:105290001A46BB68136000BF1837BD4680BD0000CA
:1052A00080B584B000AF78607B68002B01D101230A
:1052B0002BE17B6893F83D30DBB2002B06D17B6895
:1052C000002283F83C207868FCF75CFC7B68242291
:1052D00083F83D207B681B681A687B681B6822F096
:1052E00001021A607B681B681A687B681B6842F4BD
:1052F00000421A607B681B681A687B681B6822F48E
:1053000000421A6001F07AFDF8607B685B68814AB0
:10531000934207D8FB68804A934294BF012300233D
:10532000DBB206E0FB687D4A934294BF0123002371
:10533000DBB2002B01D00123E7E0FB68784AA2FB37
:1053400003239B0CBB607B681B685B6823F03F01F9
:105350007B681B68BA680A435A607B681B681B6AD3
:1053600023F03F017B685B686A4A934202D8BB68BE
:10537000013309E0BB684FF4967202FB03F3694AFC
:10538000A2FB03239B0901337A6812680B43136263
:105390007B681B68DB6923F44F4222F0FF027B68C5
:1053A0005B685C498B4219D8FB68591E7B685B6857
:1053B0005B00B1FBF3F3591C40F6FC730B40002B70
:1053C0000AD0FB68591E7B685B685B00B1FBF3F396
:1053D0000133C3F30B0351E004234FE07B689B6868
:1053E000002B11D1FB68581E7B6859680B465B0087
:1053F0000B44B0FBF3F30133C3F30B03002B0CBFDF
:1054000001230023DBB212E0FB68581E7B68596859
:105410000B469B000B4499000B44B0FBF3F30133A4
:10542000C3F30B03002B0CBF01230023DBB2002BC3
:1054300001D0012322E07B689B68002B0ED1FB6822
:10544000581E7B6859680B465B000B44B0FBF3F3B6
:105450000133C3F30B0343F400430FE0FB68581E12
:105460007B6859680B469B000B4499000B44B0FBCA
:10547000F3F30133C3F30B0343F440437968096842
:105480001343CB617B681B681B6823F0C0017B68FA
:10549000DA697B681B6A1A437B681B680A431A60D7
:1054A0007B681B689B6823F4034323F0FF037A683F
:1054B00011697A68D26811437A6812680B43936065
:1054C0007B681B68DB6823F0FF017B685A697B6897
:1054D0009B691A437B681B680A43DA607B681B6818
:1054E0001A687B681B6842F001021A607B68002220
:1054F0001A647B68202283F83D207B6800221A63AF
:105500007B68002283F83E20002318461037BD46F2
:1055100080BD00BFA08601007F841E00FF083D0003
:1055200083DE1B43D34D621080B588B002AFF860B4
:105530007A601A460B467B8113463B81FCF76CFE72
:105540007861FB6893F83D30DBB2202B40F0E080BF
:105550007B690093192301227049F86800F064F90F
:105560000346002B01D00223D3E0FB6893F83C30C4
:10557000012B01D10223CCE0FB68012283F83C20FF
:10558000FB681B681B6803F00103012B07D0FB6855
:105590001B681A68FB681B6842F001021A60FB680E
:1055A0001B681A68FB681B6822F400621A60FB68BB
:1055B000212283F83D20FB68102283F83E20FB68FF
:1055C00000221A64FB687A685A62FB683A895A8535
:1055D000FB685B8D9AB2FB681A85FB68504ADA62F9
:1055E00079897B693A6AF86800F09CF80346002BD9
:1055F00001D001238DE000233B61FB681B685B69E0
:105600003B61FB681B689B693B613B6966E07A69AB
:10561000396AF86800F022FA0346002B0DD0FB68C7
:105620001B6C042B07D1FB681B681A68FB681B689E
:1056300042F400721A6001236BE0FB685B6A1A781F
:10564000FB681B681A61FB685B6A5A1CFB685A623C
:10565000FB685B8D9BB2013B9AB2FB685A85FB6885
:105660001B8D013B9AB2FB681A85FB681B685B695E
:1056700003F00403042B1BD1FB681B8D002B17D0F8
:10568000FB685B6A1A78FB681B681A61FB685B6AD7
:105690005A1CFB685A62FB685B8D9BB2013B9AB255
:1056A000FB685A85FB681B8D013B9AB2FB681A8523
:1056B0007A69396AF86800F019FA0346002B0DD0B0
:1056C000FB681B6C042B07D1FB681B681A68FB681E
:1056D0001B6842F400721A6001231AE0FB681B8DFC
:1056E000002B94D1FB681B681A68FB681B6842F4A6
:1056F00000721A60FB68202283F83D20FB680022BC
:1057000083F83E20FB68002283F83C20002300E061
:10571000022318461837BD4680BD00BF02001000A6
:105720000000FFFF80B588B002AFF8607A603B6090
:105730000B467B81FB68DB6A7B617B69082B06D0AB
:105740007B69012B03D07B6913F5803F08D1FB688F
:105750001B681A68FB681B6842F480721A600BE0D1
:10576000FB681B6B122B07D1FB681B681A68FB6870
:105770001B6842F480721A603B6800937B680022C9
:105780004FF00111F86800F04FF80346002B0DD0E0
:10579000FB681B681B6803F48073B3F5807F03D13B
:1057A000FB684FF400721A64032335E0FB681B6941
:1057B000B3F5804F08D17B89DBB21A46FB681B68C2
:1057C00002F0FE021A611BE07B89DB11DBB203F001
:1057D0000603DBB263F00F03DAB2FB681B681A61E1
:1057E0003B687A680E49F86800F098F80346002B89
:1057F00001D0012310E07B89DAB2FB681B681A61D3
:105800003B687A680749F86800F088F80346002B7F
:1058100001D0012300E0002318461837BD4680BDA3
:10582000080001000200010080B584B000AFF860FC
:10583000B9603B601346FB7148E03B68B3F1FF3F42
:1058400044D0FCF7E9FC0246BB69D31A3A689A4295
:1058500002D33B68002B39D1BB681B0CDBB2012B98
:105860000DD1FB681B685B69DA43BB6813409BB2D0
:10587000002B0CBF01230023DBB21A460CE0FB68AF
:105880001B689B69DA43BB6813409BB2002B0CBFBB
:1058900001230023DBB21A46FB799A4216D1FB683A
:1058A00000221A63FB68202283F83D20FB68002257
:1058B00083F83E20FB681B6C43F02002FB681A64EF
:1058C000FB68002283F83C20012323E0BB681B0C0B
:1058D000DBB2012B0DD1FB681B685B69DA43BB6847
:1058E00013409BB2002B0CBF01230023DBB21A46EE
:1058F0000CE0FB681B689B69DA43BB6813409BB2F2
:10590000002B0CBF01230023DBB21A46FB799A421D
:1059100093D0002318461037BD4680BD80B584B0B3
:1059200000AFF860B9607A603B6071E0FB681B68AB
:105930005B6903F48063B3F5806F23D1FB681B6858
:105940001A68FB681B6842F400721A60FB681B68E7
:105950006FF480625A61FB6800221A63FB682022A0
:1059600083F83D20FB68002283F83E20FB681B6C17
:1059700043F00402FB681A64FB68002283F83C20B1
:10598000012367E07B68B3F1FF3F41D0FCF744FCA3
:1059900002463B68D31A7A689A4202D37B68002B8E
:1059A00036D1BB681B0CDBB2012B0CD1FB681B682A
:1059B0005B69DA43BB6813409BB2002B14BF012321
:1059C0000023DBB20BE0FB681B689B69DA43BB6812
:1059D00013409BB2002B14BF01230023DBB2002B2A
:1059E00016D0FB6800221A63FB68202283F83D2052
:1059F000FB68002283F83E20FB681B6C43F020020A
:105A0000FB681A64FB68002283F83C20012321E034
:105A1000BB681B0CDBB2012B0CD1FB681B685B69FC
:105A2000DA43BB6813409BB2002B14BF0123002351
:105A3000DBB20BE0FB681B689B69DA43BB68134071
:105A40009BB2002B14BF01230023DBB2002B7FF499
:105A50006DAF002318461037BD4680BD80B584B0B9
:105A600000AFF860B9607A6034E0F86800F086F85A
:105A70000346002B01D0012334E0BB68B3F1FF3FA4
:105A800028D0FCF7C9FB02467B68D31ABA689A4251
:105A900002D3BB68002B1DD1FB681B685B6903F058
:105AA0008003802B16D0FB6800221A63FB6820223B
:105AB00083F83D20FB68002283F83E20FB681B6CC6
:105AC00043F02002FB681A64FB68002283F83C2044
:105AD000012307E0FB681B685B6903F08003802BF0
