:020000040800F2
:10000000000002203D0E00088D0E00088D0E000835
:100010008D0E00088D0E00088D0E000800000000F7
:100020000000000000000000000000008D0E00082D
:100030008D0E0008000000008D0E00089D050008D0
:100040008D0E00088D0E00088D0E00088D0E000824
:100050008D0E00088D0E00088D0E00088D0E000814
:100060008D0E00088D0E00088D0E00088D0E000804
:100070008D0E00088D0E00088D0E00088D0E0008F4
:100080008D0E00088D0E0008E90500088D0E000891
:100090008D0E00088D0E00088D0E00088D0E0008D4
:1000A0008D0E00088D0E00088D0E00088D0E0008C4
:1000B000AD0500088D0E0008C10500088D0E000872
:1000C0008D0E00088D0E00088D0E00088D0E0008A4
:1000D0008D0E00088D0E0008D50500088D0E000855
:1000E0008D0E00088D0E00088D0E00088D0E000884
:1000F0008D0E00088D0E00088D0E00088D0E000874
:100100008D0E00088D0E00088D0E00088D0E000863
:100110008D0E00088D0E00088D0E00088D0E000853
:100120008D0E00088D0E00088D0E00088D0E000843
:100130008D0E00088D0E00088D0E00088D0E000833
:100140008D0E00088D0E00088D0E00088D0E000823
:100150008D0E00088D0E00088D0E00088D0E000813
:100160008D0E00088D0E00088D0E00088D0E000803
:100170008D0E00088D0E00088D0E00080000000096
:080180008D0E00088D0E000831
:1001900010B5054C237833B9044B13B10448AFF3C1
:1001A00000800123237010BD6800002000000000C3
:1001B0002C54000808B5034B1BB103490348AFF3A7
:1001C000008008BD000000006C0000202C540008D6
:1001D00001F0FF01102A2BDB10F0070F08D010F8F8
:1001E000013B013A8B422DD010F0070F42B3F6D1FC
:1001F000F0B441EA012141EA014122F007047FF015
:1002000000070023F0E80256083C85EA010586EA6B
:10021000010685FA47F5A3FA87F586FA47F6A5FAA7
:1002200087F68EB9EED1F0BC01F0FF0102F00702B3
:1002300032B110F8013B013A83EA010313B1F8D15E
:100240000020704701387047002D06BF354603383F
:10025000073815F0010F07D1013015F4807F02BF78
:10026000013015F4C03F0130F0BC0138704700BFC9
:1002700053B94AB9002908BF00281CBF4FF0FF310D
:100280004FF0FF3000F088B9ADF1080C6DE904CEF5
:1002900000F006F8DDF804E0DDE9022304B0704761
:1002A0002DE9F047089D8E4604468846002B4AD12A
:1002B0008A42174662D9B2FA82F64EB1C6F12003DD
:1002C00001FA06F820FA03F3B74043EA0808B440FD
:1002D0004FEA174E1FFA87FCB8FBFEF1230C0EFB0A
:1002E000118843EA084301FB0CF29A4209D9FB1832
:1002F00001F1FF3080F0EA809A4240F2E780023953
:100300003B449A1AA3B2B2FBFEF00EFB102243EA62
:10031000024300FB0CFC9C4509D9FB1800F1FF329D
:1003200080F0D6809C4540F2D3803B44023840EABE
:100330000140A3EB0C0300211DB1F3400022C5E9ED
:100340000032BDE8F0878B4205D90DB1C5E9000147
:1003500000210846F5E7B3FA83F1002946D1734539
:1003600002D3824200F20581841A6EEB030201205F
:100370009046002DE5D0C5E90048E2E7002A00F0EC
:100380009080B2FA82F6002E40F0A4808A1A030C04
:100390004FEA174E80B2BCB20121B2FBFEFC0EFB4D
:1003A0001C2243EA024304FB0CF29A4207D9FB18D1
:1003B0000CF1FF3802D29A4200F2E080C4469B1A48
:1003C000B3FBFEF20EFB123340EA034302FB04F4DC
:1003D0009C4207D9FB1802F1FF3002D29C4200F286
:1003E000CA8002461B1B42EA0C40A5E7C1F1200669
:1003F0008B4022FA06F71F430EFA01F420FA06F3A7
:100400002EFA06FE4FEA1749234300FA01F81FFAB5
:1004100087FCBEFBF9F01C0C09FB10EE44EA0E440D
:1004200000FB0CFEA64502FA01F209D93C1900F1C5
:10043000FF3A80F09C80A64540F2998002383C4407
:10044000A4EB0E041FFA83FEB4FBF9F309FB13447B
:100450004EEA044403FB0CFCA44508D93C1903F103
:10046000FF3E80F08280A4457FD9023B3C4443EAB2
:100470000040A4EB0C04A0FB02EC64457346E1468B
:1004800062D35FD05DB1B8EB030264EB090404FAF8
:1004900006F622FA01F31E43CC40C5E900640021B0
:1004A0004FE7B1FBF2FC010C41EA0E4180B240EA99
:1004B00001423B4638463C46B846BE462026B1FB84
:1004C000F7F1A2EB080241EA0C4166E7014618E7A2
:1004D00010462CE7C6F120022EFA02F3B740B140D5
:1004E00020FA02F24FEA174E0A43B3FBFEF8BCB201
:1004F0000EFB1833110C41EA034108FB04F9B0402C
:1005000089454FEA104380B23ED9791808F1FF3C83
:1005100001D289451FD8A1EB0901B1FBFEF909FB06
:1005200004F80EFB191192B242EA0142424529D267
:10053000BA1809F1FF31C4D24245C2D2A9F1020171
:100540003A44BEE7F0459DD2BEEB02036CEB070CCC
:100550000138E14696E7A7EB09094944A8F1020CE6
:10056000B1FBFEF909FB04F8DBE773467FE7504671
:1005700066E70846FDE63B44023A33E7ACF1020C7D
:100580003B441CE749469CE7A1EB0901C446B1FB8B
:10059000FEF909FB04F8C4E7704700BF80B500AF5F
:1005A00000F0C8FC01F0B5F900BF80BD80B500AF18
:1005B000024802F0A7FA00BF80BD00BFCC000020B7
:1005C00080B500AF024802F09DFA00BF80BD00BFB9
:1005D0001401002080B500AF024803F05FF800BFAF
:1005E00080BD00BF5C01002080B500AF024800F074
:1005F00028FD00BF80BD00BF8400002080B584B00E
:1006000000AFF860B9607A607B689AB24FF0FF3350
:10061000B968044802F0B6FF7B6818461037BD463B
:1006200080BD00BF5C01002080B582B000AF00F04B
:100630002FFC00F0D1F900F0A5F800F043F800F02D
:10064000EBF800F041F900F08BF90021194802F0B5
:100650005DF83C21184802F0C7F9184804F084F806
:100660000023FB800FE0134B1B68FA885A63FB885A
:100670001946134804F010F84FF47A7000F07AFC31
:10068000FB880A33FB80FB88642BECD96423BB8096
:10069000084B1B68BA885A63BB881946084803F0A0
:1006A000FBFF4FF47A7000F065FCBB880A3BBB800F
:1006B00000BFEDE714010020CC00002044540008E6
:1006C0005454000880B586B000AF00237B602A4BED
:1006D0005B6C294A43F480735364274B5B6C03F4CF
:1006E00080737B607B68254B254A1A60234B4FF44F
:1006F00080325A60214B00229A60204B00221A61FE
:100700001E4B00221A761D4B002283F820201B4B23
:100710000022DA62194B0022DA60184B0122DA61FA
:10072000164B002283F83020144B01225A611348E3
:1007300000F044FC0346002B01D000F0B7F907F1AC
:10074000080300221A605A609A60DA600423BB60D2
:100750000123FB6000233B6107F1080319460748AA
:1007600000F09EFD0346002B01D000F09FF900BF72
:100770001837BD4680BD00BF00380240840000200D
:100780000020014080B588B000AF0023BB60204B43
:100790001B6B1F4A43F0010313631D4B1B6B03F0DC
:1007A0000103BB60BB6800237B60194B1B6B184ABD
:1007B00043F002031363164B1B6B03F002037B60D1
:1007C0007B6807F10C0300221A605A609A60DA60B5
:1007D0001A614FF44073FB6001233B6100237B618E
:1007E0000023BB6107F10C0319460A4801F030F9F8
:1007F00000224FF48071074801F0C6FA01224FF43D
:100800000071044801F0C0FA00BF2037BD4680BD2A
:10081000003802400000024080B58CB000AF0023D9
:100820003B60274B1B6C264A43F001031364244BA7
:100830001B6C03F001033B603B6807F10C032422AF
:100840000021184604F070F83B1D00221A605A601F
:100850001C4B4FF080421A601A4B00225A60194B11
:1008600000229A60174B4FF6FF72DA60154B002298
:100870001A610323FB6000233B6101237B6100239A
:100880003B6201237B6207F10C0319460D4802F01D
:1008900005F80346002B01D000F008F900237B6027
:1008A0000023BB603B1D1946064802F08BFD034642
:1008B000002B01D000F0FAF800BF3037BD4680BDF4
:1008C00000380240CC00002080B588B000AF002383
:1008D0003B60204B1B6C1F4A43F0040313641D4B09
:1008E0001B6C03F004033B603B683B1D00221A6055
:1008F0005A609A60DA601A615A619A61164B174A17
:100900001A60154B53225A60134B00229A60124B07
:100910006422DA60104B00221A610F4801F0A6FE33
:100920000346002B01D000F0C1F860237B60002358
:10093000BB600023FB603B1D00221946064802F005
:10094000D1F90346002B01D000F0B0F800BF2037EA
:10095000BD4680BD00380240140100200008004060
:1009600080B582B000AF00237B60184B1B6C174A28
:1009700043F400331364154B1B6C03F400337B60AA
:100980007B68134B134A1A60114B4FF4E1325A60E3
:100990000F4B00229A600E4B0022DA600C4B0022B3
:1009A0001A610B4B0C225A61094B00229A61084BC9
:1009B0000022DA61064802F095FD0346002B01D0C3
:1009C00000F074F800BF0837BD4680BD0038024013
:1009D0005C0100200044004080B594B000AF07F1F6
:1009E000200330220021184603F09EFF07F10C037C
:1009F00000221A605A609A60DA601A610023BB60B4
:100A0000284B1B6C274A43F080531364254B1B6C07
:100A100003F08053BB60BB6800237B60224B1B68E4
:100A2000214A23F4804313601F4B1B6803F4804367
:100A30007B607B6801233B624FF480337B6202233F
:100A4000BB634FF48003FB6308233B644FF4A8733C
:100A50007B640423BB640723FB6407F1200318466F
:100A600001F0ACF90346002B01D000F01FF80F2372
:100A7000FB6002233B6100237B614FF48053BB6129
:100A80000023FB6107F10C030221184601F00EFC64
:100A90000346002B01D000F009F800BF5037BD46D7
:100AA00080BD00BF003802400070004080B400AF3D
:100AB00000BFFDE780B582B000AF00237B60104B24
:100AC0005B6C0F4A43F4804353640D4B5B6C03F43F
:100AD00080437B607B6800233B60094B1B6C084AAA
:100AE00043F080531364064B1B6C03F080533B6050
:100AF0003B68032000F0CCFE00BF0837BD4680BD38
:100B00000038024080B588B000AF78607B681B6811
:100B1000B3F1804F2DD10023BB60184B1B6B174ADC
:100B200043F001031363154B1B6B03F00103BB6020
:100B3000BB6807F10C0300221A605A609A60DA6001
:100B40001A610323FB6002233B6100237B610023C6
:100B5000BB610123FB6107F10C031946084800F053
:100B600077FF002205211C2000F09DFE1C2000F0D4
:100B7000B6FE00BF2037BD4680BD00BF0038024032
:100B80000000024080B588B000AF78607B681B68C9
:100B90001A4A93422DD10023BB60194B1B6B184A94
:100BA00043F002031363164B1B6B03F00203BB609D
:100BB000BB6807F10C0300221A605A609A60DA6081
:100BC0001A614023FB6002233B6100237B61022307
:100BD000BB610223FB6107F10C031946094800F0D1
:100BE00037FF002206211E2000F05DFE1C2000F0D1
:100BF00076FE00BF2037BD4680BD00BF0008004024
:100C0000003802400004024080B588B000AF786030
:100C10007B681B68184A934229D10023BB60174B9D
:100C20001B6B164A43F001031363144B1B6B03F059
:100C30000103BB60BB6807F10C0300221A605A6015
:100C40009A60DA601A611023FB6003233B61002382
:100C50007B6107F10C031946094800F0F9FE0022F8
:100C600007211E2000F01FFE1C2000F038FE00BFF0
:100C70002037BD4680BD00BF002001400038024043
:100C80000004024080B588B000AF78607B681B68C4
:100C90001A4A93422DD10023BB60194B1B6B184A93
:100CA00043F001031363164B1B6B03F00103BB609E
:100CB000BB6807F10C0300221A605A609A60DA6080
:100CC0001A610C23FB6002233B6101237B61032338
:100CD000BB610723FB6107F10C031946094800F0CB
:100CE000B7FE002208211E2000F0DDFD1C2000F0D0
:100CF000F6FD00BF2037BD4680BD00BF0044004068
:100D0000003802400000024080B586B000AFF860B5
:100D1000B9607A6000237B610AE0AFF3008001468E
:100D2000BB685A1CBA60CAB21A707B6901337B6116
:100D30007A697B689A42F0DB7B6818461837BD46B3
:100D400080BD80B483B000AF78604FF0FF331846A9
:100D50000C37BD465DF8047B704780B483B000AFAC
:100D6000786039603B684FF400525A60002318469F
:100D70000C37BD465DF8047B704780B483B000AF8C
:100D80007860012318460C37BD465DF8047B704738
:100D900080B485B000AFF860B9607A60002318466F
:100DA0001437BD465DF8047B7047000080B586B0FF
:100DB00000AF7860144A154BD31A7B617B693B61A5
:100DC000134B1B68002B02D1114B124A1A60104BB7
:100DD0001A687B6813443A699A4207D203F0F2FD1D
:100DE00003460C221A604FF0FF3309E0084B1B68E2
:100DF000FB60074B1A687B681344054A1360FB6865
:100E000018461837BD4680BD0000022000040000CF
:100E1000A4010020F802002080B400AF064BD3F8F4
:100E20008830054A43F47003C2F8883000BFBD46DD
:100E30005DF8047B704700BF00ED00E0DFF834D0C0
:100E4000FFF7EAFF0C480D490D4A002302E0D45891
:100E5000C4500433C4188C42F9D30A4A0A4C002304
:100E600001E013600432A242FBD303F0B1FDFFF7AF
:100E7000DBFB70470000022000000020680000201B
:100E8000C454000868000020F8020020FEE70000BB
:100E900080B500AF0E4B1B680D4A43F4007313601E
:100EA0000B4B1B680A4A43F480631360084B1B68B2
:100EB000074A43F480731360032000F0E9FC0F201D
:100EC00000F008F8FFF7F6FD0023184680BD00BFCC
:100ED000003C024080B582B000AF7860124B1A68C7
:100EE000124B1B7819464FF47A73B3FBF1F3B2FB44
:100EF000F3F3184600F001FD0346002B01D0012357
:100F00000EE07B680F2B0AD8002279684FF0FF3083
:100F100000F0C9FC064A7B681360002300E001234F
:100F200018460837BD4680BD00000020080000209C
:100F30000400002080B400AF064B1B781A46064B15
:100F40001B681344044A136000BFBD465DF8047B70
:100F5000704700BF08000020A801002080B400AF47
:100F6000034B1B681846BD465DF8047B704700BF05
:100F7000A801002080B584B000AF7860FFF7EEFFD5
:100F8000B8607B68FB60FB68B3F1FF3F05D00A4B9C
:100F90001B781A46FB681344FB6000BFFFF7DEFFB7
:100FA0000246BB68D31AFA689A42F7D800BF00BF5E
:100FB0001037BD4680BD00BF0800002080B584B05A
:100FC00000AF78600023FB737B68002B01D1012305
:100FD00033E07B681B6C002B09D17868FFF714FEA7
:100FE0007B6800225A647B68002283F83C207B687F
:100FF0001B6C03F01003002B18D17B681B6C23F4CF
:10100000885323F0020343F002027B681A64786875
:1010100000F068FA7B6800225A647B681B6C23F03E
:10102000030343F001027B681A6401E00123FB73B0
:101030007B68002283F83C20FB7B18461037BD46B6
:1010400080BD80B586B000AF786000237B6100234F
:101050003B617B681B681B68FB607B681B685B6887
:10106000BB60FB6803F002037B61BB6803F02003F5
:101070003B617B69002B49D03B69002B46D07B68E4
:101080001B6C03F01003002B05D17B681B6C43F431
:1010900000727B681A647B681B689B6803F040538E
:1010A000002B2BD17B681B7E002B27D17B681B6814
:1010B000DB6A03F47003002B06D07B681B689B6817
:1010C00003F48063002B19D17B681B685A687B6826
:1010D0001B6822F020025A607B681B6C23F480722C
:1010E0007B681A647B681B6C03F48053002B05D16A
:1010F0007B681B6C43F001027B681A64786800F01F
:10110000B0F87B681B686FF012021A60FB6803F08E
:1011100004037B61BB6803F080033B617B69002BA8
:1011200057D03B69002B54D07B681B6C03F0100335
:10113000002B05D17B681B6C43F400527B681A645A
:101140007B681B689B6803F44013002B39D17B68D4
:101150001B689B6B03F44013002B06D07B681B6855
:101160009B6803F48063002B2BD17B681B685B6852
:1011700003F48063002B24D17B681B689B6803F019
:101180004053002B1DD17B681B7E002B19D17B683F
:101190001B685A687B681B6822F080025A607B6873
:1011A0001B6C23F480527B681A647B681B6C03F40D
:1011B0008073002B05D17B681B6C43F001027B68B8
:1011C0001A64786800F08AFA7B681B686FF00C027A
:1011D0001A60FB6803F001037B61BB6803F0400306
:1011E0003B617B69002B17D03B69002B14D07B68D7
:1011F0001B681B6803F00103012B0DD17B681B6C7E
:1012000043F480327B681A64786800F034F87B68B5
:101210001B686FF001021A60FB6803F020037B611A
:10122000BB6803F080633B617B69002B15D03B6991
:10123000002B12D07B685B6C43F002027B685A641F
:101240007B681B686FF020021A60786800F01DF858
:101250007B681B686FF020021A6000BF1837BD461C
:1012600080BD80B483B000AF786000BF0C37BD464E
:101270005DF8047B704780B483B000AF786000BF36
:101280000C37BD465DF8047B704780B483B000AF77
:10129000786000BF0C37BD465DF8047B70470000E6
:1012A00080B485B000AF786039600023BB607B6894
:1012B00093F83C30012B01D1022305E17B68012228
:1012C00083F83C203B681B68092B25D97B681B6889
:1012D000D9683B681B689BB21A4613465B001344EF
:1012E0001E3B072202FA03F3DA437B681B680A40BD
:1012F000DA607B681B68D9683B689A683B681B6842
:101300009BB2184603465B0003441E3B9A407B6831
:101310001B680A43DA6022E07B681B6819693B6836
:101320001B689BB21A4613465B001344072202FA5D
:1013300003F3DA437B681B680A401A617B681B6809
:1013400019693B689A683B681B689BB2184603465C
:101350005B0003449A407B681B680A431A613B6840
:101360005B68062B24D87B681B68596B3B685A68FE
:1013700013469B001344053B1F2202FA03F3DA4392
:101380007B681B680A405A637B681B68596B3B6823
:101390001B689BB218463B685A6813469B0013446F
:1013A000053B00FA03F27B681B680A435A634CE072
:1013B0003B685B680C2B24D87B681B68196B3B6807
:1013C0005A6813469B001344233B1F2202FA03F37F
:1013D000DA437B681B680A401A637B681B68196BD9
:1013E0003B681B689BB218463B685A6813469B00D3
:1013F0001344233B00FA03F27B681B680A431A6319
:1014000023E07B681B68D96A3B685A6813469B00D7
:101410001344413B1F2202FA03F3DA437B681B6843
:101420000A40DA627B681B68D96A3B681B689BB21A
:1014300018463B685A6813469B001344413B00FA28
:1014400003F27B681B680A43DA62224BFB607B680D
:101450001B68214A934209D13B681B68122B05D1B6
:10146000FB685B6843F48002FB685A607B681B681A
:10147000194A934223D13B681B68102B03D03B6869
:101480001B68112B1BD1FB685B6843F40002FB68EF
:101490005A603B681B68102B11D1104B1B68104A17
:1014A000A2FB03239A0C13469B0013445B00BB6012
:1014B00002E0BB68013BBB60BB68002BF9D17B68D5
:1014C000002283F83C20002318461437BD465DF8FF
:1014D000047B7047002301400020014000000020F1
:1014E00083DE1B4380B485B000AF7860794BFB602E
:1014F000FB685B6823F44032FB685A60FB685A68FB
:101500007B685B681A43FB685A607B681B685A6893
:101510007B681B6822F480725A607B681B6859687C
:101520007B681B691A027B681B680A435A607B68E8
:101530001B685A687B681B6822F040725A607B689F
:101540001B6859687B689A687B681B680A435A6005
:101550007B681B689A687B681B6822F400629A604B
:101560007B681B6899687B68DA687B681B680A433C
:101570009A607B689B6A584A934222D07B681B68BA
:101580009A687B681B6822F070629A607B681B68AF
:1015900099687B689A6A7B681B680A439A607B68D3
:1015A0001B689A687B681B6822F040529A607B68CF
:1015B0001B6899687B68DA6A7B681B680A439A60D3
:1015C0000FE07B681B689A687B681B6822F070627A
:1015D0009A607B681B689A687B681B6822F040529F
:1015E0009A607B681B689A687B681B6822F002021D
:1015F0009A607B681B6899687B681B7E5A007B68D1
:101600001B680A439A607B6893F82030002B1BD03C
:101610007B681B685A687B681B6842F400625A60EA
:101620007B681B685A687B681B6822F460425A60BA
:101630007B681B6859687B685B6A013B5A037B685F
:101640001B680A435A6007E07B681B685A687B681E
:101650001B6822F400625A607B681B68DA6A7B6848
:101660001B6822F47002DA627B681B68D96A7B68A7
:10167000DB69013B1A057B681B680A43DA627B68F9
:101680001B689A687B681B6822F400729A607B680A
:101690001B6899687B6893F830305A027B681B6836
:1016A0000A439A607B681B689A687B681B6822F40F
:1016B00080629A607B681B6899687B685B699A02A4
:1016C0007B681B680A439A6000BF1437BD465DF80B
:1016D000047B7047002301400100000F80B483B0F9
:1016E00000AF786000BF0C37BD465DF8047B7047E3
:1016F00080B485B000AF78607B6803F00703FB60BF
:101700000C4BDB68BB60BA684FF6FF031340BB604D
:10171000FB681A02BB68134343F0BF6343F4003312
:10172000BB60044ABB68D36000BF1437BD465DF898
:10173000047B704700ED00E080B400AF044BDB6831
:101740001B0A03F007031846BD465DF8047B70478B
:1017500000ED00E080B483B000AF0346FB7197F961
:101760000730002B0BDBFB7903F01F02074997F9C9
:1017700007305B09012000FA02F241F8232000BF84
:101780000C37BD465DF8047B704700BF00E100E008
:1017900080B483B000AF03463960FB7197F907301E
:1017A000002B0ADB3B68DAB20C4997F907301201CB
:1017B000D2B20B4483F800230AE03B68DAB208494E
:1017C000FB7903F00F03043B1201D2B20B441A76EB
:1017D00000BF0C37BD465DF8047B704700E100E0B8
:1017E00000ED00E080B489B000AFF860B9607A60C5
:1017F000FB6803F00703FB61FB69C3F10703042BDC
:1018000028BF0423BB61FB690433062B02D9FB69A3
:10181000033B00E000237B614FF0FF32BB6902FA1B
:1018200003F3DA43BB681A407B699A404FF0FF31FB
:101830007B6901FA03F3D9437B680B4013431846D5
:101840002437BD465DF8047B7047000080B582B048
:1018500000AF78607B68013BB3F1807F01D3012347
:101860000FE00A4A7B68013B53600F214FF0FF30C5
:10187000FFF78EFF054B00229A60044B07221A6087
:10188000002318460837BD4680BD00BF10E000E0C9
:1018900080B582B000AF78607868FFF729FF00BF9D
:1018A0000837BD4680BD80B586B000AF0346B9603D
:1018B0007A60FB7300237B61FFF73EFF78617A68F3
:1018C000B9687869FFF78EFF024697F90F30114625
:1018D0001846FFF75DFF00BF1837BD4680BD80B5D5
:1018E00082B000AF0346FB7197F907301846FFF747
:1018F00031FF00BF0837BD4680BD80B582B000AF64
:1019000078607868FFF7A2FF034618460837BD469F
:1019100080BD80B500AF00F002F800BF80BD80B48C
:1019200000AF00BFBD465DF8047B704780B584B052
:1019300000AF78607B689B6DFB60FFF70FFBB860C2
:101940007B6893F83530DBB2022B08D07B688022AD
:101950005A657B68002283F83420012352E07B68BB
:101960001B681A687B681B6822F016021A607B6885
:101970001B685A697B681B6822F080025A617B6889
:101980001B6C002B03D17B689B6C002B07D07B6802
:101990001B681A687B681B6822F008021A607B6863
:1019A0001B681A687B681B6822F001021A6013E04A
:1019B000FFF7D4FA0246BB68D31A052B0CD97B6813
:1019C00020225A657B68032283F835207B68002239
:1019D00083F83420032315E07B681B681B6803F041
:1019E0000103002BE4D17B68DB6D3F229A40FB684A
:1019F0009A607B68012283F835207B68002283F897
:101A00003420002318461037BD4680BD80B483B013
:101A100000AF78607B6893F83530DBB2022B04D0DE
:101A20007B6880225A6501230CE07B68052283F8DD
:101A300035207B681B681A687B681B6822F00102EE
:101A40001A60002318460C37BD465DF8047B7047CA
:101A500080B489B000AF7860396000237B610023D7
:101A60003B610023BB610023FB616BE10122FB6949
:101A700002FA03F37B613B681B687A6913403B61A0
:101A80003A697B699A4240F05A813B685B6803F08F
:101A90000303012B05D03B685B6803F00303022BB3
:101AA00030D17B689B68BB61FB695B00032202FA53
:101AB00003F3DB43BA691340BB613B68DA68FB6937
:101AC0005B0002FA03F3BA691343BB617B68BA692E
:101AD0009A607B685B68BB610122FB6902FA03F3D1
:101AE000DB43BA691340BB613B685B681B0903F0C9
:101AF0000102FB6902FA03F3BA691343BB617B6815
:101B0000BA695A603B685B6803F00303032B17D084
:101B10007B68DB68BB61FB695B00032202FA03F3AD
:101B2000DB43BA691340BB613B689A68FB695B00A1
:101B300002FA03F3BA691343BB617B68BA69DA60DE
:101B40003B685B6803F00303022B23D1FB69DA08CF
:101B50007B68083253F82230BB61FB6903F007034E
:101B60009B000F2202FA03F3DB43BA691340BB6107
:101B70003B681A69FB6903F007039B0002FA03F351
:101B8000BA691343BB61FB69DA087B680832B9693B
:101B900043F822107B681B68BB61FB695B00032272
:101BA00002FA03F3DB43BA691340BB613B685B682D
:101BB00003F00302FB695B0002FA03F3BA69134303
:101BC000BB617B68BA691A603B685B6803F44033A9
:101BD000002B00F0B4800023FB60604B5B6C5F4A1D
:101BE00043F4804353645D4B5B6C03F48043FB60C0
:101BF000FB685B4AFB699B08023352F82330BB61E8
:101C0000FB6903F003039B000F2202FA03F3DB439B
:101C1000BA691340BB617B68524A93422BD07B6800
:101C2000514A934225D07B68504A93421FD07B682B
:101C30004F4A934219D07B684E4A934213D07B6837
:101C40004D4A93420DD07B684C4A934207D07B6843
:101C50004B4A934201D107230EE008230CE00623F0
:101C60000AE0052308E0042306E0032304E002233E
:101C700002E0012300E00023FA6902F0030292006F
:101C80009340BA691343BB613549FB699B08023332
:101C9000BA6941F823203B4B9B68BB613B69DB433E
:101CA000BA691340BB613B685B6803F48013002B87
:101CB00003D0BA693B691343BB61324ABB69936085
:101CC000304BDB68BB613B69DB43BA691340BB61E6
:101CD0003B685B6803F40013002B03D0BA693B69CF
:101CE0001343BB61274ABB69D360264B5B68BB616A
:101CF0003B69DB43BA691340BB613B685B6803F433
:101D00000033002B03D0BA693B691343BB611D4A02
:101D1000BB6953601B4B1B68BB613B69DB43BA6902
:101D20001340BB613B685B6803F48033002B03D036
:101D3000BA693B691343BB61124ABB691360FB6913
:101D40000133FB61FB690F2B7FF690AE00BF00BF34
:101D50002437BD465DF8047B704700BF0038024061
:101D60000038014000000240000402400008024028
:101D7000000C024000100240001402400018024013
:101D8000001C0240003C014080B483B000AF78608A
:101D90000B467B8013467B707B78002B03D07A88C0
:101DA0007B689A6103E07B881A047B689A6100BFB4
:101DB0000C37BD465DF8047B7047000080B586B0E7
:101DC00000AF78607B68002B01D1012367E27B685C
:101DD0001B6803F00103002B75D0884B9B6803F050
:101DE0000C03042B0CD0854B9B6803F00C03082BD1
:101DF00012D1824B5B6803F48003B3F5800F0BD1E3
:101E00007E4B1B6803F40033002B5BD07B685B6860
:101E1000002B57D1012342E27B685B68B3F5803F1A
:101E200006D1764B1B68754A43F4803313601DE07E
:101E30007B685B68B3F5A02F0CD1704B1B686F4AB1
:101E400043F4802313606D4B1B686C4A43F480336A
:101E500013600BE0694B1B68684A23F480331360FE
:101E6000664B1B68654A23F4802313607B685B68BC
:101E7000002B13D0FFF772F8386108E0FFF76EF817
:101E800002463B69D31A642B01D9032307E25B4B5B
:101E90001B6803F40033002BF0D014E0FFF75EF86A
:101EA000386108E0FFF75AF802463B69D31A642B01
:101EB00001D90323F3E1514B1B6803F40033002BDA
:101EC000F0D100E000BF7B681B6803F00203002B29
:101ED00063D04A4B9B6803F00C03002B0BD0474B9D
:101EE0009B6803F00C03082B1CD1444B5B6803F484
:101EF0008003002B16D1414B1B6803F00203002B1B
:101F000005D07B68DB68012B01D00123C7E13B4B87
:101F10001B6823F0F8027B681B69DB003749134319
:101F20000B603AE07B68DB68002B20D0344B012249
:101F30001A60FFF713F8386108E0FFF70FF8024660
:101F40003B69D31A022B01D90323A8E12B4B1B6851
:101F500003F00203002BF0D0284B1B6823F0F8029B
:101F60007B681B69DB00254913430B6015E0244B9C
:101F700000221A60FEF7F2FF386108E0FEF7EEFF7C
:101F800002463B69D31A022B01D9032387E11B4B7D
:101F90001B6803F00203002BF0D17B681B6803F081
:101FA0000803002B36D07B685B69002B16D0154BDD
:101FB00001221A60FEF7D2FF386108E0FEF7CEFF7B
:101FC00002463B69D31A022B01D9032367E10B4B6D
:101FD0005B6F03F00203002BF0D01BE0094B0022E3
:101FE0001A60FEF7BBFF38610EE0FEF7B7FF02464E
:101FF0003B69D31A022B07D9032350E10038024072
:1020000000004742800E4742884B5B6F03F002039B
:10201000002BEAD17B681B6803F00403002B00F05F
:1020200097800023FB75814B1B6C03F08053002BC2
:102030000FD10023BB607D4B1B6C7C4A43F0805367
:1020400013647A4B1B6C03F08053BB60BB680123A5
:10205000FB75774B1B6803F48073002B18D1744B0E
:102060001B68734A43F480731360FEF777FF38618F
:1020700008E0FEF773FF02463B69D31A022B01D931
:1020800003230CE16A4B1B6803F48073002BF0D030
:102090007B689B68012B06D1644B1B6F634A43F03E
:1020A000010313671CE07B689B68052B0CD15F4B19
:1020B0001B6F5E4A43F0040313675C4B1B6F5B4A64
:1020C00043F0010313670BE0584B1B6F574A23F093
:1020D00001031367554B1B6F544A23F00403136726
:1020E0007B689B68002B15D0FEF738FF38610AE04B
:1020F000FEF734FF02463B69D31A41F2883293421D
:1021000001D90323CBE0494B1B6F03F00203002BE3
:10211000EED014E0FEF722FF38610AE0FEF71EFF62
:1021200002463B69D31A41F28832934201D9032314
:10213000B5E03E4B1B6F03F00203002BEED1FB7D9D
:10214000012B05D1394B1B6C384A23F080531364A3
:102150007B689B69002B00F0A180344B9B6803F0E7
:102160000C03082B5CD07B689B69022B41D1314B5F
:1021700000221A60FEF7F2FE386108E0FEF7EEFE7C
:1021800002463B69D31A022B01D9032387E0274B70
:102190001B6803F00073002BF0D17B68DA697B6861
:1021A0001B6A1A437B685B6A9B011A437B689B6AC4
:1021B0005B08013B1B041A437B68DB6A1B061B4957
:1021C00013434B601B4B01221A60FEF7C7FE3861B8
:1021D00008E0FEF7C3FE02463B69D31A022B01D981
:1021E00003235CE0114B1B6803F00073002BF0D05D
:1021F00054E0104B00221A60FEF7B0FE386108E090
:10220000FEF7ACFE02463B69D31A022B01D9032329
:1022100045E0064B1B6803F00073002BF0D13DE056
:102220007B689B69012B07D1012338E0003802400D
:1022300000700040600047421B4B5B68FB607B689E
:102240009B69012B28D0FB6803F480027B68DB6963
:102250009A4221D1FB6803F03F027B681B6A9A42D5
:102260001AD1FA6847F6C07313407A68526A92012D
:10227000934211D1FB6803F440327B689B6A5B0890
:10228000013B1B049A4207D1FB6803F070627B6834
:10229000DB6A1B069A4201D0012300E000231846A6
:1022A0001837BD4680BD00BF0038024080B584B0FD
:1022B00000AF786039607B68002B01D10123CCE04E
:1022C000684B1B6803F007033A689A420CD9654BC8
:1022D0003A68D2B21A70634B1B6803F007033A687E
:1022E0009A4201D00123B8E07B681B6803F0020327
:1022F000002B20D07B681B6803F00403002B05D063
:10230000594B9B68584A43F4E05393607B681B68C1
:1023100003F00803002B05D0534B9B68524A43F44B
:1023200060439360504B9B6823F0F0027B689B688E
:102330004D4913438B607B681B6803F00103002B3E
:1023400044D07B685B68012B07D1474B1B6803F4C3
:102350000033002B19D101237FE07B685B68022BDF
:1023600003D07B685B68032B07D13F4B1B6803F0EE
:102370000073002B09D101236FE03B4B1B6803F076
:102380000203002B01D1012367E0374B9B6823F048
:1023900003027B685B68344913438B60FEF7DEFD04
:1023A000F8600AE0FEF7DAFD0246FB68D31A41F254
:1023B0008832934201D903234FE02B4B9B6803F0F3
:1023C0000C027B685B689B009A42EBD1254B1B6833
:1023D00003F007033A689A420CD2224B3A68D2B211
:1023E0001A70204B1B6803F007033A689A4201D029
:1023F000012332E07B681B6803F00403002B08D044
:10240000194B9B6823F4E0527B68DB681649134341
:102410008B607B681B6803F00803002B09D0124B0C
:102420009B6823F460427B681B69DB000E49134301
:102430008B6000F021F802460B4B9B681B0903F0F0
:102440000F030A49CB5C22FA03F3094A1360094BD4
:102450001B681846FEF73EFD002318461037BD46A0
:1024600080BD00BF003C02400038024068540008B4
:1024700000000020040000202DE9B04F90B000AF14
:1024800000237B630023FB6300233B630023BB63C8
:10249000594B9B6803F00C03082B0DD0082B00F25E
:1024A000A180002B02D0042B03D09BE0534BBB63D5
:1024B0009BE0534BBB6398E04F4B5B6803F03F03DB
:1024C0007B634D4B5B6803F48003002B28D04A4BA1
:1024D0005B689B0900223B627A623B6AC3F3080097
:1024E0000021474B03FB01F2002300FB03F31344DD
:1024F000434AA0FB0212FA620A46BA62FA6A13441D
:10250000FB627B6B0022BB61FA61D7E90623D7E946
:102510000A01FDF7ADFE02460B461346FB6353E08E
:10252000354B5B689B0900223B617A613B69C3F3D1
:10253000080A4FF0000B52465B464FF000004FF088
:102540000001590141EAD261500102460B46B2EB4B
:102550000A0863EB0B094FF000024FF000034FEA4B
:10256000891343EA98634FEA8812B2EB080463EBDD
:1025700009054FF000024FF00003EB0043EA5473EB
:10258000E20014461D4614EB0A033B6045EB0B03C7
:102590007B604FF000024FF00003D7E90045294669
:1025A0008B02214643EA915321468A02104619467E
:1025B0007B6B0022BB60FA60D7E90223FDF758FE6F
:1025C00002460B461346FB630B4B5B681B0C03F088
:1025D000030301335B003B63FA6B3B6BB2FBF3F32A
:1025E000BB6302E0054BBB6300BFBB6B18464037C3
:1025F000BD46BDE8B08F00BF003802400024F400A3
:1026000040787D0180B400AF034B1B681846BD467F
:102610005DF8047B704700BF0000002080B500AF6C
:10262000FFF7F0FF0246054B9B689B0A03F0070388
:102630000349CB5C22FA03F3184680BD0038024000
:102640007854000880B500AFFFF7DCFF0246054B69
:102650009B685B0B03F007030349CB5C22FA03F38F
:10266000184680BD003802407854000880B582B01A
:1026700000AF78607B68002B01D1012341E07B68CB
:1026800093F83D30DBB2002B06D17B68002283F843
:102690003C207868FEF776FA7B68022283F83D20BA
:1026A0007B681A687B6804331946104600F00EFCFC
:1026B0007B68012283F846207B68012283F83E2054
:1026C0007B68012283F83F207B68012283F8402049
:1026D0007B68012283F841207B68012283F8422035
:1026E0007B68012283F843207B68012283F8442021
:1026F0007B68012283F845207B68012283F83D2016
:10270000002318460837BD4680BD000080B584B060
:1027100000AF786039603B68002B09D17B6893F883
:102720003E30DBB2012B14BF01230023DBB222E0D9
:102730003B68042B09D17B6893F83F30DBB2012B57
:1027400014BF01230023DBB215E03B68082B09D13D
:102750007B6893F84030DBB2012B14BF01230023C8
:10276000DBB208E07B6893F84130DBB2012B14BF89
:1027700001230023DBB2002B01D001237CE03B6866
:10278000002B04D17B68022283F83E2013E03B68D3
:10279000042B04D17B68022283F83F200BE03B68C6
:1027A000082B04D17B68022283F8402003E07B6879
:1027B000022283F841207B681B6801223968184691
:1027C00000F0DAFD7B681B682D4A934204D07B68D9
:1027D0001B682C4A934201D1012300E00023002B07
:1027E00007D07B681B685A6C7B681B6842F4004208
:1027F0005A647B681B68224A934222D07B681B681C
:10280000B3F1804F1DD07B681B681F4A934218D0DC
:102810007B681B681D4A934213D07B681B681C4A67
:1028200093420ED07B681B68164A934209D07B689E
:102830001B68184A934204D07B681B68164A93426F
:1028400011D17B681B689B6803F00703FB60FB6882
:10285000062B10D07B681B681A687B681B6842F0E7
:1028600001021A6007E07B681B681A687B681B68B6
:1028700042F001021A60002318461037BD4680BDA1
:102880000000014000040140000400400008004036
:10289000000C0040004001400018004080B586B0A8
:1028A00000AF786039607B68002B01D1012397E08D
:1028B0007B6893F83D30DBB2002B06D17B680022A9
:1028C00083F83C207868FEF71DF97B68022283F8C4
:1028D0003D207B681B689B687A68126823F48043FC
:1028E00023F0070393607B681A687B6804331946FA
:1028F000104600F0EBFA7B681B689B687B617B6885
:102900001B689B693B617B681B681B6AFB603B68BB
:102910001B687A6913437B613B6923F4407323F09E
:1029200003033B613B689A683B689B691B02134346
:102930003A6913433B613B6923F4406323F00C0382
:102940003B613B6923F4704323F0F0033B613B6838
:10295000DA683B68DB691B0213433A6913433B6146
:102960003B681B691A013B681B6A1B0313433A69E6
:1029700013433B61FB6823F02203FB60FB6823F0F9
:102980008803FB603B685A683B685B691B01134323
:10299000FA681343FB607B681B687A699A607B68FE
:1029A0001B683A699A617B681B68FA681A627B68DF
:1029B000012283F846207B68012283F83E207B6851
:1029C000012283F83F207B68012283F842207B6844
:1029D000012283F843207B68012283F83D200023F5
:1029E00018461837BD4680BD80B584B000AF78600A
:1029F00039607B6893F83E30FB737B6893F83F3017
:102A0000BB737B6893F842307B737B6893F84330E9
:102A10003B733B68002B10D1FB7B012B02D17B7BEE
:102A2000012B01D0012369E07B68022283F83E205C
:102A30007B68022283F8422031E03B68042B10D1EE
:102A4000BB7B012B02D13B7B012B01D0012355E045
:102A50007B68022283F83F207B68022283F84320B0
:102A60001DE0FB7B012B08D1BB7B012B05D17B7BC0
:102A7000012B02D13B7B012B01D001233EE07B687F
:102A8000022283F83E207B68022283F83F207B6885
:102A9000022283F842207B68022283F843203B68AD
:102AA000002B03D03B68042B08D00FE07B681B6829
:102AB00001220021184600F05FFC16E07B681B68CD
:102AC00001220421184600F057FC0EE07B681B68C9
:102AD00001220021184600F04FFC7B681B68012290
:102AE0000421184600F048FC00BF7B681B681A6888
:102AF0007B681B6842F001021A60002318461037F9
:102B0000BD4680BD80B584B000AF78607B681B682F
:102B1000DB68FB607B681B681B69BB60BB6803F0FC
:102B20000203002B20D0FB6803F00203002B1BD014
:102B30007B681B686FF002021A617B6801221A77BA
:102B40007B681B689B6903F00303002B03D0786844
:102B500000F09EF905E0786800F090F9786800F0E0
:102B6000A1F97B6800221A77BB6803F00403002BED
:102B700020D0FB6803F00403002B1BD07B681B688C
:102B80006FF004021A617B6802221A777B681B6867
:102B90009B6903F44073002B03D0786800F078F948
:102BA00005E0786800F06AF9786800F07BF97B68E6
:102BB00000221A77BB6803F00803002B20D0FB68C3
:102BC00003F00803002B1BD07B681B686FF0080222
:102BD0001A617B6804221A777B681B68DB6903F043
:102BE0000303002B03D0786800F052F905E0786801
:102BF00000F044F9786800F055F97B6800221A77F4
:102C0000BB6803F01003002B20D0FB6803F0100317
:102C1000002B1BD07B681B686FF010021A617B6869
:102C200008221A777B681B68DB6903F44073002B6A
:102C300003D0786800F02CF905E0786800F01EF900
:102C4000786800F02FF97B6800221A77BB6803F0E0
:102C50000103002B0CD0FB6803F00103002B07D00D
:102C60007B681B686FF001021A61786800F0FCF85D
:102C7000BB6803F08003002B0CD0FB6803F08003DB
:102C8000002B07D07B681B686FF080021A617868A0
:102C900000F01EFCBB6803F04003002B0CD0FB6867
:102CA00003F04003002B07D07B681B686FF04002E5
:102CB0001A61786800F000F9BB6803F02003002B6C
:102CC0000CD0FB6803F02003002B07D07B681B6847
:102CD0006FF020021A61786800F0F0FB00BF103737
:102CE000BD4680BD80B586B000AFF860B9607A603F
:102CF0000023FB75FB6893F83C30012B01D10223C4
:102D0000AEE0FB68012283F83C207B680C2B00F2CC
:102D10009F8001A252F823F04D2D0008512E00088B
:102D2000512E0008512E00088D2D0008512E00084C
:102D3000512E0008512E0008CF2D0008512E0008FA
:102D4000512E0008512E00080F2E0008FB681B684A
:102D5000B968184600F060F9FB681B689A69FB685F
:102D60001B6842F008029A61FB681B689A69FB685D
:102D70001B6822F004029A61FB681B689969BB68B2
:102D80001A69FB681B680A439A6164E0FB681B6868
:102D9000B968184600F0B0F9FB681B689A69FB68CF
:102DA0001B6842F400629A61FB681B689A69FB68C1
:102DB0001B6822F480629A61FB681B689969BB6892
:102DC0001B691A02FB681B680A439A6143E0FB68AF
:102DD0001B68B968184600F005FAFB681B68DA69D9
:102DE000FB681B6842F00802DA61FB681B68DA695D
:102DF000FB681B6822F00402DA61FB681B68D96972
:102E0000BB681A69FB681B680A43DA6123E0FB6848
:102E10001B68B968184600F059FAFB681B68DA6944
:102E2000FB681B6842F40062DA61FB681B68DA69C0
:102E3000FB681B6822F48062DA61FB681B68D96951
:102E4000BB681B691A02FB681B680A43DA6102E06F
:102E50000123FB7500BFFB68002283F83C20FB7D4B
:102E600018461837BD4680BD80B483B000AF786087
:102E700000BF0C37BD465DF8047B704780B483B05B
:102E800000AF786000BF0C37BD465DF8047B70472B
:102E900080B483B000AF786000BF0C37BD465DF8EA
:102EA000047B704780B483B000AF786000BF0C37FC
:102EB000BD465DF8047B704780B483B000AF786096
:102EC00000BF0C37BD465DF8047B704780B485B009
:102ED00000AF786039607B681B68FB607B68434AA1
:102EE000934213D07B68B3F1804F0FD07B68404A88
:102EF00093420BD07B683F4A934207D07B683E4A9F
:102F0000934203D07B683D4A934208D1FB6823F08B
:102F10007003FB603B685B68FA681343FB607B6887
:102F2000324A93422BD07B68B3F1804F27D07B6825
:102F30002F4A934223D07B682E4A93421FD07B684E
:102F40002D4A93421BD07B682C4A934217D07B6852
:102F50002B4A934213D07B682A4A93420FD07B6856
:102F6000294A93420BD07B68284A934207D07B685A
:102F7000274A934203D07B68264A934208D1FB68D4
:102F800023F44073FB603B68DB68FA681343FB6023
:102F9000FB6823F080023B685B691343FB603B687E
:102FA0009A687B68DA623B681A687B689A627B6819
:102FB0000E4A934203D07B68104A934203D13B6888
:102FC0001A697B681A637B681B6843F004027B689C
:102FD0001A607B6801225A617B68FA681A6000BF38
:102FE0001437BD465DF8047B704700BF0000014008
:102FF0000004004000080040000C004000040140B4
:1030000000400140004401400048014000180040D9
:10301000001C00400020004080B487B000AF786002
:1030200039607B681B6A7B617B681B6A23F0010245
:103030007B681A627B685B683B617B689B69FB60AD
:10304000FB6823F07003FB60FB6823F00303FB6065
:103050003B681B68FA681343FB607B6923F002033B
:103060007B613B689B687A6913437B617B68204A7C
:10307000934203D07B681F4A93420CD17B6923F0B3
:1030800008037B613B68DB687A6913437B617B697A
:1030900023F004037B617B68154A934203D07B686D
:1030A000144A934211D13B6923F480733B613B691D
:1030B00023F400733B613B685B693A6913433B61EE
:1030C0003B689B693A6913433B617B683A695A6084
:1030D0007B68FA689A613B685A687B685A637B68C8
:1030E0007A691A6200BF1C37BD465DF8047B7047E1
:1030F000000001400004014080B487B000AF786058
:1031000039607B681B6A7B617B681B6A23F0100255
:103110007B681A627B685B683B617B689B69FB60CC
:10312000FB6823F4E043FB60FB6823F44073FB601F
:103130003B681B681B02FA681343FB607B6923F042
:1031400020037B613B689B681B017A6913437B61A9
:103150007B68224A934203D07B68214A93420DD177
:103160007B6923F080037B613B68DB681B017A6924
:1031700013437B617B6923F040037B617B68174AC3
:10318000934203D07B68164A934213D13B6923F4E0
:1031900080633B613B6923F400633B613B685B698F
:1031A0009B003A6913433B613B689B699B003A690A
:1031B00013433B617B683A695A607B68FA689A619D
:1031C0003B685A687B689A637B687A691A6200BFB9
:1031D0001C37BD465DF8047B704700BF000001400E
:1031E0000004014080B487B000AF786039607B682C
:1031F0001B6A7B617B681B6A23F480727B681A629E
:103200007B685B683B617B68DB69FB60FB6823F084
:103210007003FB60FB6823F00303FB603B681B68E3
:10322000FA681343FB607B6923F400737B613B689E
:103230009B681B027A6913437B617B68214A934236
:1032400003D07B68204A93420DD17B6923F400634D
:103250007B613B68DB681B027A6913437B617B6996
:1032600023F480637B617B68164A934203D07B68BA
:10327000154A934213D13B6923F480533B613B6968
:1032800023F400533B613B685B691B013A691343BC
:103290003B613B689B691B013A6913433B617B6857
:1032A0003A695A607B68FA68DA613B685A687B68F9
:1032B000DA637B687A691A6200BF1C37BD465DF825
:1032C000047B7047000001400004014080B487B0D7
:1032D00000AF786039607B681B6A3B617B681B6A62
:1032E00023F480527B681A627B685B687B617B6831
:1032F000DB69FB60FB6823F4E043FB60FB6823F4BD
:103300004073FB603B681B681B02FA681343FB6059
:103310003B6923F400533B613B689B681B033A699C
:1033200013433B617B68124A934203D07B68114A86
:10333000934209D17B6923F480437B613B685B69DD
:103340009B017A6913437B617B687A695A607B6869
:10335000FA68DA613B685A687B681A647B683A6984
:103360001A6200BF1C37BD465DF8047B704700BF82
:10337000000001400004014080B487B000AFF86055
:10338000B9607A60BB6803F01F03012202FA03F3FD
:103390007B61FB681A6A7B69DB431A40FB681A622F
:1033A000FB681A6ABB6803F01F03796801FA03F32C
:1033B0001A43FB681A6200BF1C37BD465DF8047BE8
:1033C0007047000080B485B000AF786039607B68DA
:1033D00093F83C30012B01D102235AE07B68012293
:1033E00083F83C207B68022283F83D207B681B68C1
:1033F0005B68FB607B681B689B68BB60FB6823F0B5
:103400007003FB603B681B68FA681343FB607B68D2
:103410001B68FA685A607B681B68214A934222D075
:103420007B681B68B3F1804F1DD07B681B681D4A09
:10343000934218D07B681B681B4A934213D07B6869
:103440001B681A4A93420ED07B681B68184A934245
:1034500009D07B681B68174A934204D07B681B68BD
:10346000154A93420CD1BB6823F08003BB603B68D4
:103470005B68BA681343BB607B681B68BA689A6074
:103480007B68012283F83D207B68002283F83C2082
:10349000002318461437BD465DF8047B704700BF13
:1034A000000001400004004000080040000C004003
:1034B00000040140004001400018004080B483B087
:1034C00000AF786000BF0C37BD465DF8047B7047E5
:1034D00080B483B000AF786000BF0C37BD465DF8A4
:1034E000047B704780B582B000AF78607B68002BAA
:1034F00001D1012342E07B6893F84130DBB2002B1D
:1035000006D17B68002283F840207868FDF7BAFB7B
:103510007B68242283F841207B681B68DA687B681B
:103520001B6822F40052DA60786800F07FFD7B6847
:103530001B681A697B681B6822F490421A617B68D9
:103540001B685A697B681B6822F02A025A617B68F3
:103550001B68DA687B681B6842F40052DA607B689B
:1035600000225A647B68202283F841207B68202255
:1035700083F842207B6800225A63002318460837EC
:10358000BD4680BD80B58AB002AFF860B9603B60CF
:103590001346FB8000237B61FB6893F84130DBB26C
:1035A000202B75D1BB68002B02D0FB88002B01D1EA
:1035B00001236EE0FB6800225A64FB68212283F835
:1035C0004120FDF7CBFC7861FB68FA889A84FB68A0
:1035D000FA88DA84FB689B68B3F5805F08D1FB68E2
:1035E0001B69002B04D10023FB61BB68BB6103E0B6
:1035F000BB68FB610023BB612EE03B6800937B69E5
:1036000000228021F86800F01DFB0346002B05D046
:10361000FB68202283F8412003233AE0FB69002B5A
:103620000BD1BB691B881A46FB681B68C2F30802F2
:103630005A60BB690233BB6107E0FB691A78FB681B
:103640001B685A60FB690133FB61FB68DB8C9BB232
:10365000013B9AB2FB68DA84FB68DB8C9BB2002BDF
:10366000CBD13B6800937B6900224021F86800F0D1
:10367000E9FA0346002B05D0FB68202283F841209D
:10368000032306E0FB68202283F84120002300E0AA
:10369000022318462037BD4680BD000080B5BAB071
:1036A00000AF78607B681B681B68C7F8E4307B68F4
:1036B0001B68DB68C7F8E0307B681B685B69C7F88C
:1036C000DC300023C7F8D8300023C7F8D430D7F84F
:1036D000E43003F00F03C7F8D830D7F8D830002B08
:1036E0000FD1D7F8E43003F02003002B09D0D7F82E
:1036F000E03003F02003002B03D0786800F0D7FB04
:1037000073E2D7F8D830002B00F0DE80D7F8DC3039
:1037100003F00103002B06D1D7F8E03003F49073D7
:10372000002B00F0D180D7F8E43003F00103002B28
:103730000BD0D7F8E03003F48073002B05D07B6802
:103740005B6C43F001027B685A64D7F8E43003F005
:103750000403002B0BD0D7F8DC3003F00103002B5F
:1037600005D07B685B6C43F002027B685A64D7F833
:10377000E43003F00203002B0BD0D7F8DC3003F069
:103780000103002B05D07B685B6C43F004027B686F
:103790005A64D7F8E43003F00803002B11D0D7F8AF
:1037A000E03003F02003002B05D1D7F8DC3003F024
:1037B0000103002B05D07B685B6C43F008027B683B
:1037C0005A647B685B6C002B00F00A82D7F8E43007
:1037D00003F02003002B08D0D7F8E03003F02003DB
:1037E000002B02D0786800F062FB7B681B685B6985
:1037F00003F04003402B0CBF01230023DBB2C7F8CA
:10380000D4307B685B6C03F00803002B03D1D7F83E
:10381000D430002B4FD0786800F06DFA7B681B68BD
:103820005B6903F04003402B41D17B681B68143374
:10383000C7F89C30D7F89C3053E8003FC7F8983061
:10384000D7F8983023F04003C7F8D0307B681B6866
:103850001433D7F8D020C7F8A820C7F8A430D7F879
:10386000A410D7F8A82041E80023C7F8A030D7F863
:10387000A030002BD9D17B68DB6B002B13D07B6889
:10388000DB6B8A4A1A657B68DB6B1846FEF7BEF86D
:103890000346002B16D07B68DB6B1B6D7A68D26BFE
:1038A000104698470EE0786800F0B6F90AE07868AC
:1038B00000F0B2F906E0786800F0AEF97B6800220B
:1038C0005A648DE100BF8BE17B681B6B012B40F0DC
:1038D0006781D7F8E43003F01003002B00F060811B
:1038E000D7F8E03003F01003002B00F059810023DB
:1038F000BB607B681B681B68BB607B681B685B6880
:10390000BB60BB687B681B685B6903F04003402BAE
:1039100040F0CE807B68DB6B1B685B68A7F8BE302D
:10392000B7F8BE30002B00F0A9807B689B8DB7F8FC
:10393000BE209A4280F0A2807B68B7F8BE20DA856C
:103940007B68DB6BDB69B3F5807F00F088807B6888
:103950001B680C33C7F88830D7F8883053E8003F2D
:10396000C7F88430D7F8843023F48073C7F8B830B0
:103970007B681B680C33D7F8B820C7F89420C7F8C9
:103980009030D7F89010D7F8942041E80023C7F87A
:103990008C30D7F88C30002BD9D17B681B6814335E
:1039A0007B677B6F53E8003F3B673B6F23F001036E
:1039B000C7F8B4307B681B681433D7F8B420C7F855
:1039C0008020FB67F96FD7F8802041E80023BB67B0
:1039D000BB6F002BE1D17B681B6814333B663B6EE9
:1039E00053E8003FFB65FB6D23F04003C7F8B030A0
:1039F0007B681B681433D7F8B020FA66BB66B96ED3
:103A0000FA6E41E800237B667B6E002BE3D17B6876
:103A1000202283F842207B6800221A637B681B689F
:103A20000C33FB64FB6C53E8003FBB64BB6C23F0BE
:103A30001003C7F8AC307B681B680C33D7F8AC2098
:103A4000BA657B65796DBA6D41E800233B653B6DD6
:103A5000002BE3D17B68DB6B1846FDF767FF7B68C3
:103A600002225A637B689A8D7B68DB8D9BB2D31AE6
:103A70009BB21946786800F0D9F8B3E07B689B8D5B
:103A8000B7F8BE209A4240F0AD807B68DB6BDB6903
:103A9000B3F5807F40F0A6807B6802225A637B6882
:103AA0009B8D1946786800F0C1F89BE0BD3D000889
:103AB0007B689A8D7B68DB8D9BB2D31AA7F8CE30DA
:103AC0007B68DB8D9BB2002B00F08E80B7F8CE3088
:103AD000002B00F089807B681B680C33BB63BB6BD9
:103AE00053E8003F7B637B6B23F49073C7F8C830C7
:103AF0007B681B680C33D7F8C8207A643B64396C48
:103B00007A6C41E80023FB63FB6B002BE3D17B68FD
:103B10001B6814337B627B6A53E8003F3B623B6A5D
:103B200023F00103C7F8C4307B681B681433D7F84F
:103B3000C4203A63FB62F96A3A6B41E80023BB6236
:103B4000BB6A002BE3D17B68202283F842207B688C
:103B500000221A637B681B680C333B613B6953E8A6
:103B6000003FFB60FB6823F01003C7F8C0307B68A0
:103B70001B680C33D7F8C020FA61BB61B969FA69D8
:103B800041E800237B617B69002BE3D17B68022243
:103B90005A63B7F8CE301946786800F047F823E04A
:103BA000D7F8E43003F08003002B09D0D7F8E030D9
:103BB00003F08003002B03D0786800F010F914E0C4
:103BC000D7F8E43003F04003002B0ED0D7F8E030F4
:103BD00003F04003002B08D0786800F050F904E0AF
:103BE00000BF02E000BF00E000BFE837BD4680BD77
:103BF00080B483B000AF786000BF0C37BD465DF87D
:103C0000047B704780B483B000AF786000BF0C378E
:103C1000BD465DF8047B704780B483B000AF786028
:103C200000BF0C37BD465DF8047B704780B483B09D
:103C300000AF78600B467B8000BF0C37BD465DF857
:103C4000047B704780B586B000AFF860B9603B6018
:103C50001346FB713BE03B6AB3F1FF3F37D0FDF702
:103C60007DF902463B68D31A3A6A9A4202D33B6A0C
:103C7000002B01D103233AE0FB681B68DB6803F0EB
:103C80000403002B23D0BB68802B20D0BB68402BC3
:103C90001DD0FB681B681B6803F00803082B16D1B6
:103CA00000237B61FB681B681B687B61FB681B68EA
:103CB0005B687B617B69F86800F01DF8FB6808228F
:103CC0005A64FB68002283F8402001230FE0FB6860
:103CD0001B681A68BB681340BA689A420CBF01237C
:103CE0000023DBB21A46FB799A42B4D0002318466F
:103CF0001837BD4680BD80B495B000AF78607B6852
:103D00001B680C337B637B6B53E8003F3B633B6B6F
:103D100023F49073FB647B681B680C33FA6C3A6481
:103D2000FB63F96B3A6C41E80023BB63BB6B002B70
:103D3000E5D17B681B6814333B623B6A53E8003F64
:103D4000FB61FB6923F00103BB647B681B681433D0
:103D5000BA6CFA62BB62B96AFA6A41E800237B6214
:103D60007B6A002BE5D17B681B6B012B19D17B682B
:103D70001B680C33FB60FB6853E8003FBB60BB680B
:103D800023F010037B647B681B680C337A6CBA6188
:103D90007B617969BA6941E800233B613B69002B8B
:103DA000E5D17B68202283F842207B6800221A63D9
:103DB00000BF5437BD465DF8047B704780B584B0C2
:103DC00000AF78607B689B6BFB60FB680022DA8544
:103DD000F868FFF721FF00BF1037BD4680BD80B4F3
:103DE00085B000AF78607B6893F84130DBB2212B5F
:103DF0003ED17B689B68B3F5805F14D17B681B69FB
:103E0000002B10D17B681B6AFB60FB681B881A467D
:103E10007B681B68C2F308025A607B681B6A9A1CA5
:103E20007B681A6208E07B681B6A591C7A68116219
:103E30001A787B681B685A607B68DB8C9BB2013BFD
:103E40009BB27A681946D184002B0FD17B681B681E
:103E5000DA687B681B6822F08002DA607B681B6886
:103E6000DA687B681B6842F04002DA60002300E0F9
:103E7000022318461437BD465DF8047B704780B5B1
:103E800082B000AF78607B681B68DA687B681B686B
:103E900022F04002DA607B68202283F841207868B3
:103EA000FFF7A6FE002318460837BD4680BD80B543
:103EB0008CB000AF78600023FB620023BB627B689C
:103EC00093F84230DBB2222B40F0AA807B689B68DB
:103ED000B3F5805F15D17B681B69002B11D17B681E
:103EE0009B6ABB627B681B685B689BB2C3F3080379
:103EF0009AB2BB6A1A807B689B6A9A1C7B689A623A
:103F000024E07B689B6AFB627B689B68B3F5805FFB
:103F100007D07B689B68002B0AD17B681B69002B4C
:103F200006D17B681B685B68DAB2FB6A1A7008E02E
:103F30007B681B685B68DBB203F07F03DAB2FB6A65
:103F40001A707B689B6A5A1C7B689A627B68DB8D5F
:103F50009BB2013B9BB27A681946D185002B5DD19B
:103F60007B681B68DA687B681B6822F02002DA60D5
:103F70007B681B68DA687B681B6822F48072DA60F1
:103F80007B681B685A697B681B6822F001025A61D2
:103F90007B68202283F842207B6800225A637B687A
:103FA0001B6B012B35D17B6800221A637B681B6871
:103FB0000C337B617B6953E8003F3B613B6923F035
:103FC00010037B627B681B680C337A6A3A62FB6180
:103FD000F9693A6A41E80023BB61BB69002BE5D16E
:103FE0007B681B681B6803F01003102B0AD10023A9
:103FF000FB607B681B681B68FB607B681B685B68F9
:10400000FB60FB687B689B8D19467868FFF70EFEA6
:1040100002E07868FFF7F6FD002302E0002300E0ED
:10402000022318463037BD4680BD00002DE9B04F51
:10403000C0B000AFC7F8F400D7F8F4301B681B69B4
:1040400023F44050D7F8F430D968D7F8F4301A6820
:1040500040EA01031361D7F8F4309A68D7F8F430D6
:104060001B691A43D7F8F4305B691A43D7F8F43068
:10407000DB691343C7F8F830D7F8F4301B68DB6806
:1040800023F4164121F00C01D7F8F4301A68D7F860
:10409000F8300B43D360D7F8F4301B685B6923F426
:1040A0004070D7F8F4309969D7F8F4301A6840EACC
:1040B00001035361D7F8F4301A688F4B9A4205D048
:1040C000D7F8F4301A688D4B9A4204D1FEF7BAFA49
:1040D000C7F8FC0003E0FEF7A1FAC7F8FC00D7F828
:1040E000F430DB69B3F5004F40F00C81D7F8FC30B9
:1040F0000022C7F8E830C7F8EC20D7E93A45224655
:104100002B469118B9655B41FB65D7E9162321461B
:1041100012EB0108294643EB01094FF000024FF072
:1041200000034FEAC90343EA58734FEAC8029046B6
:104130009946234618EB0303C7F8E0302B4649EBBA
:104140000303C7F8E430D7F8F4305B680022C7F8FF
:10415000D830C7F8DC20D7E936120B46DB183B65B0
:10416000134642EB03037B65D7E91423D7E93801F3
:10417000FCF77EF802460B46614BA3FB02235B096A
:104180001C01D7F8FC300022C7F8D030C7F8D42083
:10419000D7E9348942464B469118B9645B41FB64C8
:1041A000D7E91223414612EB010A494643EB010BC2
:1041B0004FF000024FF000034FEACB0343EA5A737B
:1041C0004FEACA0292469B4643461AEB0303C7F8DE
:1041D000C8304B464BEB0303C7F8CC30D7F8F4306C
:1041E0005B680022C7F8C030C7F8C420D7E9301296
:1041F0000B46DB183B64134642EB03037B64D7E9B1
:104200001023D7E93201FCF733F802460B4611467A
:104210003B4BA3FB01235B09642202FB03F3CB1A94
:10422000DB0003F13202364BA3FB02235B095B0088
:1042300003F4F8731C44D7F8FC300022C7F8B830F8
:10424000C7F8BC20D7E92E8942464B469118B9637E
:104250005B41FB63D7E90E23414651183963494658
:104260004B417B634FF000024FF00003D7E90CABEA
:104270005946CB00514643EA51735146CA00104695
:104280001946034642469B18C7F8B0304B460A46CB
:1042900042EB0303C7F8B430D7F8F4305B68002270
:1042A000C7F8A830C7F8AC20D7E92A120B46DB18AC
:1042B000BB62134642EB0303FB62D7E90A23D7E94B
:1042C0002C01FBF7D5FF02460B460D4BA3FB021357
:1042D0005B09642101FB03F3D31ADB003233084A84
:1042E000A2FB03235B0903F00702D7F8F4301B6835
:1042F00022449A6006E100BF001001400014014012
:104300001F85EB51D7F8FC300022C7F8A030C7F862
:10431000A420D7E9288942464B46911839625B416F
:104320007B62D7E9082341465418494643EB01050F
:104330004FF000024FF00003EB0043EA5473E20039
:1043400014461D464346E318C7F898304B4645EBE4
:104350000303C7F89C30D7F8F4305B680022C7F835
:104360009030C7F894204FF000024FF00003D7E9D7
:10437000244529468B00214643EA917321468A0051
:10438000D7E92601FBF774FF02460B46604BA3FBFF
:1043900002235B091C01D7F8FC300022C7F88830E3
:1043A000C7F88C20D7E9228942464B469118B9615B
:1043B0005B41FB61D7E90623414651183961494603
:1043C0004B417B614FF000024FF00003D7E904AB93
:1043D0005946CB00514643EA51735146CA00104634
:1043E0001946034642469B18C7F880304B460A469A
:1043F00042EB0303C7F88430D7F8F4305B6800223F
:10440000BB67FA674FF000024FF00003D7E91E893F
:1044100049468B00414643EA917341468A00D7E9F9
:104420002001FBF725FF02460B461146384BA3FB44
:1044300001235B09642202FB03F3CB1A1B01323315
:10444000334AA2FB03235B0903F0F0031C44D7F8B3
:10445000FC3000223B677A67D7E91C8942464B460D
:104460009118B9605B41FB60D7E9022341465118BE
:10447000396049464B417B604FF000024FF000032A
:10448000D7E900AB5946CB00514643EA5173514638
:10449000CA0010461946034642469B18BB664B4667
:1044A0000A4642EB0303FB66D7F8F4305B68002250
:1044B0003B667A664FF000024FF00003D7E9188997
:1044C00049468B00414643EA917341468A00D7E949
:1044D0001A01FBF7CDFE02460B460D4BA3FB021360
:1044E0005B09642101FB03F3D31A1B013233084A31
:1044F000A2FB03235B0903F00F02D7F8F4301B681B
:1045000022449A6000BF07F58077BD46BDE8B08FB2
:104510001F85EB51002310B50446C0E90033C0E904
:104520000433836081814366C28183611946082216
:104530005C3000F0F9F90D4B63620D4BA3620D4B3B
:10454000E3620D4B23630D4B24629C4206D003F1C2
:104550006802944202D0D0339C4205D104F1580045
:10456000BDE8104000F058BA10BD00BF7947000800
:104570009B470008D3470008F7470008AC0100201C
:10458000024A0349034800F069B800BF0C0000204C
:10459000B55200081C00002041680C4B994210B530
:1045A000044601D000F086FEA168094B994202D072
:1045B000204600F07FFEE168064B994204D0204679
:1045C000BDE8104000F076BE10BD00BFAC01002079
:1045D000140200207C02002010B50B4B0B4C0C4A3F
:1045E0001A60204600220421FFF794FF04F16800BE
:1045F00001220921FFF78EFF04F1D0000222BDE85D
:1046000010401221FFF786BFE4020020AC01002019
:1046100081450008014800F000BA00BFED0200200B
:10462000014800F0FBB900BFED02002010B50446C0
:10463000FFF7F0FF236A1BB1BDE81040FFF7F0BFA2
:10464000044B2362044B1B68002BF5D1FFF7C4FF1A
:10465000F2E700BF99450008E40200202DE9F84385
:104660000746884614460026D4E90195B9F10109A8
:1046700005D52468002CF7D13046BDE8F883AB8916
:10468000012B07D9B5F90E30013303D0294638463E
:10469000C04706436835E9E70FB407B5064904ABE0
:1046A000086853F8042B8168019300F0DBFA03B02B
:1046B0005DF804EB04B0704718000020036A70B581
:1046C000846805460E460BB9FFF7B0FF636EDB0743
:1046D00005D4A389980502D4A06D00F09EF9A389A2
:1046E000190702D52369002B35D12146284600F051
:1046F000C5F880B34FF0FF35636EDA0705D4A389A0
:104700009B0502D4A06D00F089F9284670BD002BEE
:1047100004DAA2699A4217DC0A2915D023685A1CC8
:1047200022601970A36816F8011F013BA3600029DD
:10473000EDD1002B11DA22460A21284600F05FF85D
:104740000130D7D00A25D7E72246284600F057F88F
:104750000130E7D1CEE7013EE4E723685A1C22602E
:104760000A221A70EEE70000024B01461868FFF7B4
:10477000A5BF00BF1800002010B50C46B1F90E10FF
:1047800000F0FCF80028ABBF636DA3891B1823F46D
:104790008053ACBF6365A38110BD2DE9F0411F4676
:1047A0008B89DB0505460C46164605D5B1F90E107A
:1047B0000223002200F0D0F8A389B4F90E1023F4EC
:1047C0008053A38132463B462846BDE8F04100F0C5
:1047D000E7B810B50C46B1F90E1000F0BDF8431C57
:1047E000A38915BF606523F4805343F48053A381EC
:1047F00018BFA38110BDB1F90E1000F09DB8F8B537
:104800000E461446054618B1036A0BB9FFF70EFFB2
:10481000A369A360A3891A0701D5236943B9214677
:10482000284600F02BF818B14FF0FF373846F8BD96
:1048300023682269981A6369F6B28342374605DC19
:104840002146284600F036FD0028EDD1A368013B43
:10485000A36023685A1C22601E706269431C9A423E
:1048600004D0A389DB07E1D50A2EDFD121462846F3
:1048700000F020FD0028D9D0D6E7000038B5294B3C
:10488000054618680C4618B1036A0BB9FFF7CEFE4F
:10489000B4F90C30190722D4DA0607D409222A60A9
:1048A00043F04003A3814FF0FF3033E0580712D5A7
:1048B000616B41B104F14403994202D0284600F0F3
:1048C000AFF800236363A38923F02403A3810023AB
:1048D000636023692360A38943F00803A3812369EC
:1048E0004BB9A38903F42073B3F5007F03D02146AD
:1048F000284600F02DFDB4F90C3013F001020AD067
:104900000022A26062695242A261226942B913F098
:104910008000C5D138BD990758BF6269A260F4E72D
:104920000020F7E71800002002440346934200D11C
:10493000704703F8011BF9E738B5064D002304461C
:1049400008462B60FCF7FDF9431C02D12B6803B12C
:10495000236038BDE802002038B5074D04460846FC
:10496000114600222A601A46FCF712FA431C02D1B3
:104970002B6803B1236038BDE802002038B5074D2D
:1049800004460846114600222A601A46FCF7BCF984
:10499000431C02D12B6803B1236038BDE80200201C
:1049A00038B5074D04460846114600222A601A46CB
:1049B000FBF724FE431C02D12B6803B1236038BDF2
:1049C000E8020020014B1868704700BF1800002063
:1049D00070B50D4D0D4C641BA4100026A64209D1E4
:1049E0000B4D0C4C00F022FD641BA4100026A642C7
:1049F00005D170BD55F8043B98470136EEE755F8F0
:104A0000043B98470136F2E7BC540008BC54000848
:104A1000BC540008C054000870477047704700003D
:104A200038B50546002941D051F8043C0C1F002B35
:104A3000B8BFE41800F0E0F81D4A136833B96360AA
:104A400014602846BDE8384000F0DCB8A34208D91D
:104A5000206821188B4201BF19685B680918216022
:104A6000EDE71A465B680BB1A342FAD911685018FA
:104A7000A0420BD120680144501883421160E0D15C
:104A800018685B68536008441060DAE702D90C23A9
:104A90002B60D6E7206821188B4204BF19685B6839
:104AA000636004BF091821605460CAE738BD00BFC5
:104AB000F402002070B50F4E0C463168054611B95E
:104AC00000F0A4FC30602146284600F09FFC431C07
:104AD00003D14FF0FF34204670BDC41C24F0030402
:104AE000A042F8D0211A284600F090FC0130F2D103
:104AF000EFE700BFF00200202DE9F843CD1C25F0C0
:104B0000030508350C2D38BF0C25002D064601DBAA
:104B1000A94204D90C2333600020BDE8F883DFF8F4
:104B2000D48000F069F8D8F800301C4644BB294610
:104B30003046FFF7BFFF431C044658D1D8F8004069
:104B40002746002F43D1002C4BD0236839463046EE
:104B500004EB030900F05AFC814542D121686D1A2B
:104B600029463046FFF7A6FF01303AD023682B4490
:104B70002360D8F800305A6862BBC8F800700FE0B4
:104B80002268521B20D40B2A17D96119A342256031
:104B900018BF5960636808BFC8F8001062514B60C5
:104BA000304600F02FF804F10B00231D20F0070021
:104BB000C21A1CBF1B1AA350AFE76268A3420CBF06
:104BC000C8F800205A60EBE723466468AEE73C462D
:104BD0007F68B6E71A465B68A342FBD100235360A7
:104BE000DEE70C233360304600F00CF894E70560F4
:104BF000D6E700BFF40200200148FFF70EBF00BF58
:104C0000EC0200200148FFF709BF00BFEC020020C2
:104C10009368013B002B10B4936008DA9469A342B7
:104C200001DB0A2903D15DF8044BFFF7E8BD1368E7
:104C3000581C1060197008465DF8044B7047F8B5B1
:104C400006460F461446D518AC4201D1002007E0B5
:104C500014F8011B3A463046FFF7DAFF431CF3D144
:104C6000F8BD00002DE9F04F0D469DB01446984662
:104C7000064618B1036A0BB9FFF7D8FC6B6ED9076B
:104C800005D4AB899A0502D4A86DFFF7C6FEAB899F
:104C90001B0701D52B699BB929463046FFF7EEFD6E
:104CA00070B16B6EDC0704D54FF0FF301DB0BDE86E
:104CB000F08FAB899805F7D4A86DFFF7AFFEF3E747
:104CC0000023099320238DF82930CDF80C80302360
:104CD000DFF8AC818DF82A304FF0010923469A465F
:104CE00013F8012B0AB1252AF9D1BAEB040B0BD02A
:104CF0005B46224629463046FFF7A1FF013000F00F
:104D0000A780099A5A4409929AF80030002B00F0C3
:104D10009F8000234FF0FF32CDE905230AF1010AFD
:104D2000049307938DF853301A935446052214F8D0
:104D3000011B5348FBF74CFA049AD8B9D10644BF7B
:104D400020238DF85330130744BF2B238DF85330A5
:104D50009AF800302A2B15D0079A544600204FF0BD
:104D60000A0C214611F8013B303B092B4BD9B0B15D
:104D7000079214E0A0EB080309FA03F3134304932A
:104D8000A246D2E7039B191D1B680391002BBBBFF2
:104D90005B4242F0020207930793B8BF0492237864
:104DA0002E2B0AD163782A2B32D1039B1A1D1B6844
:104DB000039243EAE37302340593DFF8D4A0217829
:104DC00003225046FBF704FA38B1049BA0EB0A001B
:104DD0004022824013430134049314F8011B2948F4
:104DE0008DF828100622FBF7F3F900283FD0264B58
:104DF0001BBB039B073323F0070308330393099B73
:104E00003B4409936AE70CFB02320C460120A8E7F9
:104E100000230134059319464FF00A0C204610F880
:104E2000012B303A092A03D9002BC6D00591C4E7DB
:104E30000CFB012104460123F0E703AB00932A4653
:104E4000124B04A93046AFF300800746781CD6D138
:104E50006B6ED90705D4AB899A0502D4A86DFFF70C
:104E6000DDFDAB895B063FF51FAF09981EE703AB7D
:104E700000932A46054B04A9304600F079F8E4E790
:104E8000805400088A540008000000003F4C0008CD
:104E9000865400082DE9F047164698468A680B6943
:104EA000DDF820909342B8BF1346336091F8432059
:104EB00007460C460AB1013333602368990642BFA6
:104EC000336802333360256815F0060506D104F116
:104ED000190AE36832689B1AAB4226DC94F8433027
:104EE0002268003B18BF012392062BD404F1430231
:104EF00041463846C84701301ED02368226903F076
:104F00000603042B02BFE5683368ED1AA3680CBFE3
:104F100025EAE57500259342C4BF9B1AED180026CB
:104F20001A34B5421AD1002008E001235246414606
:104F30003846C847013003D14FF0FF30BDE8F08755
:104F40000135C6E7E1185A1C302081F8430022449D
:104F500094F8451082F843100233C7E70123224634
:104F600041463846C8470130E6D00136D9E700004F
:104F70002DE9FF470F7E0C9E782F914680460C4608
:104F80009A4601F1430207D8622F0AD8002F00F099
:104F9000D180582F00F0B88004F1420684F84270A6
:104FA0003AE0A7F16303152BF6D801A151F823F0DD
:104FB000095000081D500008994F0008994F00083B
:104FC000994F0008994F00081D500008994F00089C
:104FD000994F0008994F0008994F00081B5100088D
:104FE00047500008D5500008994F0008994F000815
:104FF0003D510008994F000847500008994F00089C
:10500000994F0008DD50000833681A1D1B68326094
:1050100004F1420684F8423001239CE033682068A2
:10502000191D3160060601D51D6803E04506FBD554
:10503000B3F90050002D03DA2D236D4284F843307C
:1050400058480A2311E021683368080653F8045BC6
:1050500002D4490648BFADB26F2F5248336014BF27
:105060000A230823002184F843106668A660002EF6
:1050700005DB21682E4321F0040121604BD0164648
:10508000B5FBF3F103FB1157C75D06F8017D2F4611
:10509000BB420D46F4D9082B0BD12368DF0708D596
:1050A000236961689942DEBF302306F8013C06F1AE
:1050B000FF36921B2261CDF800A04B4603AA214681
:1050C0004046FFF7E7FE01304AD14FF0FF3004B011
:1050D000BDE8F087236843F0200323603248782737
:1050E00084F84570236831681F0651F8045B02D4C8
:1050F0005F0648BFADB23160D90744BF43F020031B
:1051000023601DB11023ADE72648E9E7236823F0AB
:1051100020032360F6E71646BDE73368256861691A
:10512000181D30602E061B6801D5196002E0680664
:10513000FBD51980002323611646BCE733681A1D8E
:1051400032601E68626800213046FBF741F808B102
:10515000801B606063682361002384F84330AAE702
:105160002369324649464046D0470130ADD02368D6
:105170009B0713D4E068039B9842B8BF1846A6E784
:105180000123324649464046D04701309DD0013583
:10519000E36803995B1AAB42F2DCEBE7002504F10C
:1051A0001906F5E791540008A2540008B1F90C2043
:1051B0002DE9F041160705460C4654D44B68002BE8
:1051C00002DC0B6C002B48DDE66A002E45D0002384
:1051D00012F480522F68216A2B6030D0626DA3894F
:1051E000590705D56368D21A636B0BB1236CD21AC9
:1051F0000023E66A216A2846B047431CA38906D1EA
:1052000029681D292BD82A4ACA40D60727D500224B
:105210006260D9042269226004D5421C01D12B6846
:1052200003B96065616B2F60B9B104F14403994221
:1052300002D02846FFF7F4FB002363630DE001234F
:105240002846B0470246501CC9D12B68002BC6D057
:105250001D2B01D0162B1ED12F60002022E043F021
:1052600040031BB21BE00F69002FF6D093070E68B6
:1052700008BF4B690F6018BF0023A6EB07088B60BF
:10528000B8F1000FE9DD216AA66A43463A4628468E
:10529000B047002808DCB4F90C3043F04003A38188
:1052A0004FF0FF30BDE8F0810744A8EB0008E7E7C6
:1052B0000100402038B50B6905460C4613B900259E
:1052C000284638BD18B1036A0BB9FFF7AFF9B4F936
:1052D0000C30002BF3D0626ED00704D4990502D4B1
:1052E000A06DFFF79AFB28462146FFF75FFF636E2C
:1052F000DA070546E4D4A3899B05E1D4A06DFFF746
:105300008DFBDDE770B50C46B1F90E10002996B0A3
:1053100015461E460DDAA38913F0800F4FF00001E9
:1053200014BF40234FF48063002031602B6016B01F
:1053300070BD6A4600F048F80028ECDB019901F4E2
:105340007041A1F50053594259414FF48063EBE796
:105350008B89F7B59D0706460C4607D504F1470330
:10536000236023610123636103B0F0BD01AB6A4692
:10537000FFF7C8FF009F054639463046FFF7BCFBE4
:1053800048B9B4F90C309A05EED423F0030343F086
:105390000203A381E2E7A389206043F08003A38195
:1053A000019BC4E904075BB1B4F90E10304600F06C
:1053B0001DF828B1A38923F0030343F00103A3815F
:1053C000A3891D43A581CFE738B5074D00230446C7
:1053D000084611462B60FBF7C0FC431C02D12B682A
:1053E00003B1236038BD00BFE802002038B5064D88
:1053F0000023044608462B60FBF7BFFC431C02D188
:105400002B6803B1236038BDE802002038B5064D93
:105410000023044608462B60FBF7C8FC431C02D15E
:105420002B6803B1236038BDE8020020F8B500BF47
:10543000F8BC08BC9E467047F8B500BFF8BC08BC75
:045440009E467047CD
:1054440050574D20546573742053746172740D0069
:1054540050574D2044757479203D20257525250D20
:105464000A00000000000000000000000102030424
:10547400060708090000000001020304232D302B55
:105484002000686C4C006566674546470030313241
:105494003334353637383941424344454600303198
:1054A40032333435363738396162636465660000F7
:0854B4001CADFF7F01000000A8
:0454BC00B50100082E
:0454C000910100084E
:1054C4000024F400100000000100000000000000AF
:1054D40003000000AC0100201C00002000000000BC
:1054E400AC010020140200207C0200200000000017
:1054F40000000000000000000000000000000000A8
:105504000000000000000000000000000000000097
:105514000000000000000000000000000000000087
:0855240000000000000000007F
:0400000508000E3DA4
:00000001FF
